:020000040800F2
:10000000000001200DBE00085DBE00082D2900087B
:100010005DBE00083B2900084929000800000000D7
:10002000000000000000000000000000912A00080D
:100030005DBE000800000000212B00082DA600086E
:100040005DBE00085DBE00085DBE00085DBE000824
:100050005DBE00085DBE000821A9000827A90008B0
:100060002DA9000833A9000839A900085DBE0008C1
:100070005DBE00085DBE00085DBE00085DBE0008F4
:100080005DBE00085DBE00085DBE00085DBE0008E4
:10009000000000005DBE00083FA900085DBE00082A
:1000A000FDA200085DBE000811A3000815A300080A
:1000B00029A300083DA300085DBE00085DBE00083E
:1000C0005DBE00085DBE00085DBE00085DBE0008A4
:1000D0009DB30008B5B30008D1B300085DBE0008A9
:1000E0005DBE000867A900085DBE00085DBE00088F
:1000F0005DBE000800000000000000005DBE0008BA
:100100005DBE00085DBE0008197600085DBE0008EF
:100110005DBE00085DBE00085DBE00085DBE000853
:100120005DBE00085DBE00085DBE00085DBE000843
:080130005DBE00085DBE000881
:10014000034613F8012B002AFBD1181A0138704717
:1001500081F0004102E000BF83F0004330B54FEA78
:1001600041044FEA430594EA050F08BF90EA020FE5
:100170001FBF54EA000C55EA020C7FEA645C7FEA78
:10018000655C00F0E2804FEA5454D4EB5555B8BF9B
:100190006D420CDD2C4480EA020281EA030382EA0C
:1001A000000083EA010180EA020281EA0303362D9E
:1001B00088BF30BD11F0004F4FEA01314FF4801C71
:1001C0004CEA113102D0404261EB410113F0004F83
:1001D0004FEA03334CEA133302D0524263EB43033A
:1001E00094EA050F00F0A780A4F10104D5F1200ED8
:1001F0000DDB02FA0EFC22FA05F2801841F1000133
:1002000003FA0EF2801843FA05F359410EE0A5F106
:1002100020050EF1200E012A03FA0EFC28BF4CF037
:10022000020C43FA05F3C01851EBE37101F00045ED
:1002300007D54FF0000EDCF1000C7EEB00006EEBFA
:100240000101B1F5801F1BD3B1F5001F0CD3490884
:100250005FEA30004FEA3C0C04F101044FEA4452DB
:1002600012F5800F80F09A80BCF1004F08BF5FEA62
:10027000500C50F1000041EB045141EA050130BD42
:100280005FEA4C0C404141EB0101013C28BFB1F554
:10029000801FE9D291F0000F04BF01460020B1FA9F
:1002A00081F308BF2033A3F10B03B3F120020CDA72
:1002B0000C3208DD02F1140CC2F10C0201FA0CF050
:1002C00021FA02F10CE002F11402D8BFC2F1200CB5
:1002D00001FA02F120FA0CFCDCBF41EA0C0190406B
:1002E000E41AA2BF01EB0451294330BD6FEA0404B4
:1002F0001F3C1CDA0C340EDC04F11404C4F120029F
:1003000020FA04F001FA02F340EA030021FA04F3B0
:1003100045EA030130BDC4F10C04C4F1200220FA07
:1003200002F001FA04F340EA0300294630BD21FA45
:1003300004F0294630BD94F0000F83F4801306BF0B
:1003400081F480110134013D4EE77FEA645C18BFFF
:100350007FEA655C29D094EA050F08BF90EA020F96
:1003600005D054EA000C04BF1946104630BD91EA8E
:10037000030F1EBF0021002030BD5FEA545C05D191
:100380004000494128BF41F0004130BD14F58004D0
:100390003CBF01F5801130BD01F0004545F0FE4144
:1003A00041F470014FF0000030BD7FEA645C1ABF79
:1003B000194610467FEA655C1CBF0B46024650EAB0
:1003C000013406BF52EA033591EA030F41F40021DC
:1003D00030BD00BF90F0000F04BF0021704730B562
:1003E0004FF4806404F132044FF000054FF0000137
:1003F00050E700BF90F0000F04BF0021704730B5F8
:100400004FF4806404F1320410F0004548BF4042CC
:100410004FF000013EE700BF42004FEAE2014FEA21
:1004200031014FEA02701FBF12F07F4393F07F4FFC
:1004300081F06051704732F07F4208BF704793F0FF
:100440007F4F04BF41F40021704730B54FF4607412
:1004500001F0004521F000411CE700BF50EA010215
:1004600008BF704730B54FF000050AE050EA0102BE
:1004700008BF704730B511F0004502D5404261EB2E
:1004800041014FF4806404F132045FEA915C3FF46F
:10049000D8AE4FF003025FEADC0C18BF03325FEA0C
:1004A000DC0C18BF033202EBDC02C2F1200300FABD
:1004B00003FC20FA02F001FA03FE40EA0E0021FAE2
:1004C00002F11444BDE600BF70B54FF0FF0C4CF4D0
:1004D000E06C1CEA11541DBF1CEA135594EA0C0F82
:1004E00095EA0C0F00F0DEF82C4481EA030621EABD
:1004F0004C5123EA4C5350EA013518BF52EA0335F8
:1005000041F4801143F4801338D0A0FB02CE4FF0A9
:100510000005E1FB02E506F00042E0FB03E54FF0D9
:100520000006E1FB03569CF0000F18BF4EF0010ED1
:10053000A4F1FF04B6F5007F64F5407404D25FEACD
:100540004E0E6D4146EB060642EAC62141EA555180
:100550004FEAC52040EA5E504FEACE2EB4F1FD0CC2
:1005600088BFBCF5E06F1ED8BEF1004F08BF5FEA40
:10057000500E50F1000041EB045170BD06F00046F2
:1005800046EA010140EA020081EA0301B4EB5C049F
:10059000C2BFD4EB0C0541EA045170BD41F4801197
:1005A0004FF0000E013C00F3AB8014F1360FDEBFBC
:1005B000002001F0004170BDC4F10004203C35DA98
:1005C0000C341BDC04F11404C4F1200500FA05F31B
:1005D00020FA04F001FA05F240EA020001F00042BC
:1005E00021F0004110EBD37021FA04F642EB060132
:1005F0005EEA430E08BF20EAD37070BDC4F10C045C
:10060000C4F1200500FA04F320FA05F001FA04F21F
:1006100040EA020001F0004110EBD37041F100010B
:100620005EEA430E08BF20EAD37070BDC4F1200516
:1006300000FA05F24EEA020E20FA04F301FA05F27E
:1006400043EA020321FA04F001F0004121FA04F226
:1006500020EA020000EBD3705EEA430E08BF20EAF6
:10066000D37070BD94F0000F0FD101F00046400030
:1006700041EB010111F4801F08BF013CF7D041EAB2
:10068000060195F0000F18BF704703F000465200B6
:1006900043EB030313F4801F08BF013DF7D043EA87
:1006A0000603704794EA0C0F0CEA135518BF95EA3D
:1006B0000C0F0CD050EA410618BF52EA4306D1D1C4
:1006C00081EA030101F000414FF0000070BD50EAE3
:1006D000410606BF1046194652EA430619D094EA6D
:1006E0000C0F02D150EA013613D195EA0C0F05D157
:1006F00052EA03361CBF104619460AD181EA0301AB
:1007000001F0004141F0FE4141F470014FF0000062
:1007100070BD41F0FE4141F4780170BD70B54FF0FD
:10072000FF0C4CF4E06C1CEA11541DBF1CEA13557D
:1007300094EA0C0F95EA0C0F00F0A7F8A4EB05045F
:1007400081EA030E52EA03354FEA013100F0888056
:100750004FEA03334FF0805545EA131343EA12631F
:100760004FEA022245EA111545EA10654FEA0026D4
:100770000EF000419D4208BF964244F1FD0404F58D
:10078000407402D25B084FEA3202B61A65EB0305E9
:100790005B084FEA32024FF480104FF4002CB6EBA6
:1007A000020E75EB030E22BFB61A754640EA0C0026
:1007B0005B084FEA3202B6EB020E75EB030E22BF66
:1007C000B61A754640EA5C005B084FEA3202B6EBA7
:1007D000020E75EB030E22BFB61A754640EA9C0066
:1007E0005B084FEA3202B6EB020E75EB030E22BF36
:1007F000B61A754640EADC0055EA060E18D04FEAF4
:10080000051545EA16754FEA06164FEAC30343EA93
:1008100052734FEAC2025FEA1C1CC0D111F4801F60
:100820000BD141EA00014FF000004FF0004CB6E759
:1008300011F4801F04BF01430020B4F1FD0C88BFF8
:10084000BCF5E06F3FF6AFAEB5EB030C04BFB6EB03
:10085000020C5FEA500C50F1000041EB045170BDF6
:100860000EF0004E4EEA113114EB5C04C2BFD4EB23
:100870000C0541EA045170BD41F480114FF0000EA7
:10088000013C90E645EA060E8DE60CEA135594EA23
:100890000C0F08BF95EA0C0F3FF43BAF94EA0C0F26
:1008A0000AD150EA01347FF434AF95EA0C0F7FF49B
:1008B00025AF104619462CE795EA0C0F06D152EAEF
:1008C00003353FF4FDAE1046194622E750EA4106D3
:1008D00018BF52EA43067FF4C5AE50EA41047FF4E4
:1008E0000DAF52EA43057FF4EBAE12E74FF0FF3C49
:1008F00006E000BF4FF0010C02E000BF4FF0010C1A
:100900004DF804CD4FEA410C7FEA6C5C4FEA430C92
:1009100018BF7FEA6C5C1BD001B050EA410C0CBFE1
:1009200052EA430C91EA030F02BF90EA020F002043
:10093000704710F1000F91EA030F58BF994208BFAA
:1009400090422CBFD8176FEAE37040F00100704767
:100950004FEA410C7FEA6C5C02D150EA013C07D1BE
:100960004FEA430C7FEA6C5CD6D152EA033CD3D009
:100970005DF8040B704700BF8446104662468C4603
:100980001946634600E000BF01B5FFF7B7FF002836
:1009900048BF10F1000F01BD4DF808EDFFF7F4FF5F
:1009A0000CBF012000205DF808FB00BF4DF808EDEA
:1009B000FFF7EAFF34BF012000205DF808FB00BF0D
:1009C0004DF808EDFFF7E0FF94BF012000205DF82F
:1009D00008FB00BF4DF808EDFFF7CEFF94BF0120E4
:1009E00000205DF808FB00BF4DF808EDFFF7C4FFDD
:1009F00034BF012000205DF808FB00BF4FEA410230
:100A000012F5001215D211D56FF47873B3EB625260
:100A100012D94FEAC12343F0004343EA505311F087
:100A2000004F23FA02F018BF404270474FF0000019
:100A3000704750EA013005D111F0004008BF6FF057
:100A4000004070474FF00000704700BF4A0011D2CD
:100A500012F5001211D20DD56FF47873B3EB625218
:100A60000ED44FEAC12343F0004343EA505323FA24
:100A700002F070474FF00000704750EA013002D199
:100A80004FF0FF3070474FF0000070474FEA4102CF
:100A9000B2F1E04324BFB3F5001CDCF1FE5C0DD9DC
:100AA00001F0004C4FEAC0024CEA5070B2F1004F26
:100AB00040EB830008BF20F00100704711F0804F29
:100AC00021D113F13872BCBF01F00040704741F4EE
:100AD00080114FEA5252C2F11802C2F1200C10FAF2
:100AE0000CF320FA02F018BF40F001004FEAC123D6
:100AF0004FEAD32303FA0CFC40EA0C0023FA02F37A
:100B00004FEA4303CCE77FEA625307D150EA01334F
:100B10001EBF4FF0FE4040F44000704701F000401F
:100B200040F0FE4040F40000704700BF80F00040FD
:100B300002E000BF81F0004142001FBF5FEA4103B5
:100B400092EA030F7FEA226C7FEA236C6AD04FEAB5
:100B50001262D2EB1363C1BFD218414048404140FA
:100B6000B8BF5B42192B88BF704710F0004F40F4AC
:100B7000000020F07F4018BF404211F0004F41F4C8
:100B8000000121F07F4118BF494292EA030F3FD094
:100B9000A2F1010241FA03FC10EB0C00C3F12003A7
:100BA00001FA03F100F0004302D5494260EB400036
:100BB000B0F5000F13D3B0F1807F06D340084FEAA1
:100BC000310102F10102FE2A51D2B1F1004F40EB96
:100BD000C25008BF20F0010040EA030070474900FE
:100BE00040EB0000013A28BFB0F5000FEDD2B0FA9B
:100BF00080FCACF1080CB2EB0C0200FA0CF0AABFBE
:100C000000EBC25052421843BCBFD040184370475B
:100C100092F0000F81F4000106BF80F40000013261
:100C2000013BB5E74FEA41037FEA226C18BF7FEA38
:100C3000236C21D092EA030F04D092F0000F08BF7A
:100C40000846704790EA010F1CBF0020704712F061
:100C50007F4F04D1400028BF40F00040704712F1A0
:100C600000723CBF00F50000704700F0004343F005
:100C7000FE4040F4000070477FEA226216BF08463B
:100C80007FEA23630146420206BF5FEA412390EAFE
:100C9000010F40F4800070474FF0000304E000BFF4
:100CA00010F0004348BF40425FEA000C08BF7047A5
:100CB00043F0964301464FF000001CE050EA010269
:100CC00008BF70474FF000030AE000BF50EA01027E
:100CD00008BF704711F0004302D5404261EB41016B
:100CE0005FEA010C02BF84460146002043F0B64390
:100CF00008BFA3F18053A3F50003BCFA8CF2083AB5
:100D0000A3EBC25310DB01FA02FC634400FA02FCBD
:100D1000C2F12002BCF1004F20FA02F243EB0200C4
:100D200008BF20F00100704702F1200201FA02FC26
:100D3000C2F1200250EA4C0021FA02F243EB020019
:100D400008BF20EADC7070474FF0FF0C1CEAD0525D
:100D50001EBF1CEAD15392EA0C0F93EA0C0F6FD01E
:100D60001A4480EA010C400218BF5FEA41211ED0FC
:100D70004FF0006343EA501043EA5111A0FB0131E8
:100D80000CF00040B1F5000F3EBF490041EAD371BD
:100D90005B0040EA010062F17F02FD2A1DD8B3F139
:100DA000004F40EBC25008BF20F00100704790F0A8
:100DB000000F0CF0004C08BF49024CEA502040EAFA
:100DC00051207F3AC2BFD2F1FF0340EAC2507047C0
:100DD00040F400004FF00003013A5DDC12F1190FFE
:100DE000DCBF00F000407047C2F10002410021FA70
:100DF00002F1C2F1200200FA02FC5FEA310040F188
:100E0000000053EA4C0308BF20EADC70704792F000
:100E1000000F00F0004C02BF400010F4000F013A38
:100E2000F9D040EA0C0093F0000F01F0004C02BF33
:100E3000490011F4000F013BF9D041EA0C018FE7A2
:100E40000CEAD15392EA0C0F18BF93EA0C0F0AD0A8
:100E500030F0004C18BF31F0004CD8D180EA0100CE
:100E600000F00040704790F0000F17BF90F0004F67
:100E7000084691F0000F91F0004F14D092EA0C0F49
:100E800001D142020FD193EA0C0F03D14B0218BFDC
:100E9000084608D180EA010000F0004040F0FE4022
:100EA00040F40000704740F0FE4040F440007047BE
:100EB0004FF0FF0C1CEAD0521EBF1CEAD15392EA3D
:100EC0000C0F93EA0C0F69D0A2EB030280EA010C2D
:100ED00049024FEA402037D04FF0805343EA1111C6
:100EE00043EA10130CF000408B4238BF5B0042F124
:100EF0007D024FF4000C8B4224BF5B1A40EA0C00C9
:100F0000B3EB510F24BFA3EB510340EA5C00B3EBFA
:100F1000910F24BFA3EB910340EA9C00B3EBD10FE8
:100F200024BFA3EBD10340EADC001B0118BF5FEA3A
:100F30001C1CE0D1FD2A3FF650AF8B4240EBC25063
:100F400008BF20F0010070470CF0004C4CEA502024
:100F50007F32C2BFD2F1FF0340EAC250704740F473
:100F600000004FF00003013A37E792F0000F00F065
:100F7000004C02BF400010F4000F013AF9D040EAE3
:100F80000C0093F0000F01F0004C02BF490011F477
:100F9000000F013BF9D041EA0C0195E70CEAD1536F
:100FA00092EA0C0F08D142027FF47DAF93EA0C0F56
:100FB0007FF470AF084676E793EA0C0F04D14B023A
:100FC0003FF44CAF08466EE730F0004C18BF31F0EC
:100FD000004CCAD130F000427FF45CAF31F00043E6
:100FE0007FF43CAF5FE700BF4FF0FF3C06E000BF7F
:100FF0004FF0010C02E000BF4FF0010C4DF804CDA2
:101000004FEA40024FEA41037FEA226C18BF7FEAB1
:10101000236C11D001B052EA530C18BF90EA010FB3
:1010200058BFB2EB030088BFC81738BF6FEAE17042
:1010300018BF40F0010070477FEA226C02D15FEADE
:10104000402C05D17FEA236CE4D15FEA412CE1D04A
:101050005DF8040B704700BF844608466146FFE711
:101060000FB5FFF7C9FF002848BF10F1000F0FBDF3
:101070004DF808EDFFF7F4FF0CBF012000205DF8EC
:1010800008FB00BF4DF808EDFFF7EAFF34BF012071
:1010900000205DF808FB00BF4DF808EDFFF7E0FF0A
:1010A00094BF012000205DF808FB00BF4DF808ED5B
:1010B000FFF7D2FF94BF012000205DF808FB00BFBE
:1010C0004DF808EDFFF7C8FF34BF012000205DF8A0
:1010D00008FB00BF4FEA40024FEA41037FEA226C5F
:1010E00002D15FEA402C08D17FEA236C02D15FEA8B
:1010F000412C02D14FF0000070474FF001007047C3
:101100004FEA4002B2F1FE4F0FD34FF09E03B3EB14
:1011100012620DD94FEA002343F0004310F0004F54
:1011200023FA02F018BF404270474FF000007047AA
:1011300012F1610F01D1420205D110F0004008BF49
:101140006FF0004070474FF00000704742000ED231
:10115000B2F1FE4F0BD34FF09E03B3EB126209D4F2
:101160004FEA002343F0004323FA02F070474FF0A8
:101170000000704712F1610F01D1420202D14FF01D
:10118000FF3070474FF00000704700BF53B94AB9B5
:10119000002908BF00281CBF4FF0FF314FF0FF307F
:1011A00000F00CB8ADF1080C6DE904CE0BF03EFA7E
:1011B000DDF804E0DDE9022304B07047704700BFAA
:1011C00010B5054C237833B9044B13B10448AFF381
:1011D00000800123237010BDA0000020000000004B
:1011E0002CC9000808B5034B1BB103490348AFF3F2
:1011F000008008BD00000000A40000202CC90008E9
:1012000038B5044C4AF6AA2525604FF4FA7000F070
:10121000F5FFF9E70030004070B52048204E86B059
:1012200006224FF4E1310AF0AFFA1E491B480AF0DA
:1012300035FB30684FF0FF32694600F004FC0128AE
:101240000446F6D1184915480AF00EFB22460599C6
:1012500012480AF00DFC154910480AF005FB6C46CF
:10126000112514F8013B0F2B03D811490B480AF044
:10127000FBFA14F8011C094810220AF066FB0D491C
:1012800006480AF0F1FA013DEBD104480AF0F4FAFD
:10129000094902480AF002FBCBE700BF840700209F
:1012A000BC000020B8C90008CBC90008DBC9000891
:1012B000E3C90008E1C90008E5C9000810B5421EED
:1012C00000F10E01002312F8014F23448A42DBB2E1
:1012D000F9D1C07BC31A5842584110BD30B5384AC5
:1012E0003849394887B002F0B7FE00230593374BE1
:1012F000049308220E23CDE9023205251223CDE9FD
:101300000053334A33493048072302F073FA044646
:1013100078B1062230484FF4E1310AF035FA2F490E
:101320002D480AF0A1FA2C480A2221460AF0F8FAC0
:10133000FEE72B4928480AF0B1FA22461821284630
:1013400000F04EFA274B186050B923484FF4E131B2
:1013500006220AF019FA24491F480AF09FFAFEE70C
:10136000224B2349234845F255521A6004225A6001
:101370004FF47A729A604AF6AA221A604CF6CC426E
:101380001A60022300934FF400722346019400F088
:10139000BFFC0123184900934FF4C072234617483D
:1013A000019400F0B5FC1649164823464FF48072AC
:1013B000CDE9004400F0ACFC00F0AEFDFEE700BF5C
:1013C00084CB0008E4CB0008C00000209A99D93FE4
:1013D0000000FA420000594484070020FCC90008BC
:1013E00014CA0008BC00002029CA000800300040D0
:1013F00047CA00082D14000853CA00081912000833
:101400005DCA0008011200087047000010B54820AE
:1014100009F03CF8044602F089FA21460248BDE88A
:10142000104002F0DDB900BFC00000202DE9F043FC
:101430005948DFF868918FB006224FF4E1310AF085
:10144000A3F94FF000081122002103A80AF024FF9D
:101450005348112203A904F001FB0446002840F080
:1014600095804F4804F0D6F89DF80C30AA2B06461C
:1014700040F087809DF81C30FF2B40F0828003A84D
:10148000FFF71CFF00287CD0464943480AF006FAC3
:10149000454941480AF0E8F9012231463E480AF040
:1014A000E7FA42493C480AF0F9F99DF80D208DF819
:1014B00005205523BDF80E208DF8043030469DF8E8
:1014C0001030ADF806208DF80830FEF7A5FF424633
:1014D0004B46FEF7F9FFFFF791FA35498DF80A0000
:1014E000C0F307232C488DF809300AF0BDF901221A
:1014F000314629480AF0BCFA2E4927480AF0B4F9C7
:1015000001AC072714F8013B0F2B03D82A492248C6
:101510000AF0AAF914F8011C1F4810220AF015FA63
:1015200026491D480AF0A0F9013FEBD11A480AF0FC
:10153000A3F91B483B46072201A902F0DBFF044642
:10154000A8B91F49144803AC0AF0A8F90FCC08AD9C
:101550000FC51C4823682B7000680D963B460A2275
:1015600008A900F061F90A2000F048FE6BE716496F
:1015700009480AF079F90A22214607480AF0D0F909
:10158000F1E7124904480AF089F9ECE7C31D012B81
:10159000E9D90F49ECE700BF840700200000244090
:1015A000C00000206ACA000886CA000896CA00085F
:1015B0009BCA0008BDCA0008E3C90008E1C90008C9
:1015C000C4CA0008BC000020DBCA0008F6CA000834
:1015D00031CB000800F108034FF0FF32C0E90223CD
:1015E0004360036100230360704700230361704779
:1015F00043684B609A688A6051609960036808612B
:1016000001330360704730B50C68631C0AD103696D
:101610005A684A6091608B605960036808610133C1
:10162000036030BD00F10802134652681568A542F8
:10163000FAD9EDE7D0E9011203698A60516059686F
:10164000814208BF5A60002202611A68013A1A609A
:101650001868704710B5044601F02CFAA46B01F02D
:1016600049FAB4FA84F0400910BD70B51646026C10
:10167000856B044642B906689EB9806800F0F6FEA4
:10168000A6600135A56370BD6EB940680AF0A0FE82
:101690006368226C1344A2686360934224BF23688A
:1016A00063600020EDE7C0680AF092FE226CE368F8
:1016B00051429B1A2268E36093423EBFA3685B18C5
:1016C000E360022EEDD10DB1013DEAE72846D8E7EF
:1016D000034610B41A6C08465AB1DC68A1189C681D
:1016E000D960A14228BF196810BC28BFD9600AF090
:1016F0006FBE10BC704770B5044601F0DBF994F87A
:10170000455004F124066DB2002D01DD636AB3B9C2
:10171000FF2384F8453001F0EDF901F0CBF994F89E
:10172000445004F110066DB2002D01DD23697BB930
:10173000FF2384F84430BDE8704001F0DBB9304647
:1017400000F0F4FD08B100F07BFE013D6DB2DBE777
:10175000304600F0EBFD08B100F072FE013D6DB2C5
:10176000E2E738B50D46044640B94FF0500383F325
:101770001188BFF36F8FBFF34F8FFEE701F09AF927
:10178000D4E90F31226862604B43D0185B1A1A44C7
:10179000A060FF230020A063E26084F8443084F856
:1017A0004530A5B9236973B104F1100000F0BEFD06
:1017B00048B14FF0E0234FF08052C3F8042DBFF33F
:1017C0004F8FBFF36F8F01F095F9012038BD04F101
:1017D0001000FFF7FFFE04F12400FFF7FBFEF2E725
:1017E000F8B50D461746064640B94FF0500383F34F
:1017F0001188BFF36F8FBFF34F8FFEE74843503020
:1018000001F0FEF8044658B165B100F15003C4E997
:101810000F65236001212046FFF7A3FF84F84C7079
:101820002046F8BD0346F2E72DE9FF410F4601923D
:101830001E46044640B94FF0500383F31188BFF3AE
:101840006F8FBFF34F8FFEE751B9036C43B14FF079
:10185000500383F31188BFF36F8FBFF34F8FFEE701
:10186000022E0BD1E36B012B08D04FF0500383F312
:101870001188BFF36F8FBFF34F8FFEE700F0E6FDD7
:10188000054650B9019B4BB14FF0500383F31188CB
:10189000BFF36F8FBFF34F8FFEE700254FF00008B7
:1018A00039E0022E3DD0019B1BB901F023F9002045
:1018B00050E015B902A800F07BFD01F01BF900F023
:1018C00077FB01F0F7F894F84430FF2B08BF84F859
:1018D000448094F84530FF2B08BF84F8458001F020
:1018E00009F901A902A800F06FFD002848D101F014
:1018F000E1F8A26BE36B9A422FD101F0FBF801995A
:1019000004F1100000F0DAFC2046FFF7F4FE00F0CE
:10191000FFFB50B3012501F0CDF8A26BE36B9A42B7
:10192000BFD2324639462046FFF79FFE636A1BB19D
:1019300004F1240000F0FAFC48B14FF0E0234FF02E
:101940008052C3F8042DBFF34F8FBFF36F8F01F0A8
:10195000D1F8012004B0BDE8F08101F0CBF82046B9
:10196000FFF7C9FE00F0D4FBD4E74FF0E0234FF0BF
:101970008052C3F8042DBFF34F8FBFF36F8FC9E7B9
:101980002046FFF7B8FE00F0C3FB90E72DE9F843CF
:10199000894617461E46044640B94FF0500383F36C
:1019A0001188BFF36F8FBFF34F8FFEE751B9036C00
:1019B00043B14FF0500383F31188BFF36F8FBFF330
:1019C0004F8FFEE7022E0BD1E36B012B08D04FF0B7
:1019D000500383F31188BFF36F8FBFF34F8FFEE780
:1019E00001F042F9EFF311884FF0500383F31188AF
:1019F000BFF36F8FBFF34F8FA26BE36B9A4201D39C
:101A0000022E1ED194F84550A36B6DB23246494662
:101A10002046FFF72AFE6B1C0ED1636A3BB104F12E
:101A2000240000F083FC10B10FB101233B600120C2
:101A300088F31188BDE8F88301356DB284F845500C
:101A4000F5E70020F4E72DE9FF410E460192044638
:101A500040B94FF0500383F31188BFF36F8FBFF38A
:101A60004F8FFEE751B9036C43B14FF0500383F33E
:101A70001188BFF36F8FBFF34F8FFEE700F0E6FCD6
:101A8000054650B9019B4BB14FF0500383F31188C9
:101A9000BFF36F8FBFF34F8FFEE700254FF00008B5
:101AA0003DE0019B1BB901F025F8002056E015B977
:101AB00002A800F07DFC01F01DF800F079FA00F0BA
:101AC000F9FF94F84430FF2B08BF84F8448094F861
:101AD0004530FF2B08BF84F8458001F00BF801A9C1
:101AE00002A800F071FC002841D12046FFF7B2FDAA
:101AF000B8B3019904F1240000F0E0FB2046FFF7A1
:101B0000FAFD00F005FB48B94FF0E0234FF080529A
:101B1000C3F8042DBFF34F8FBFF36F8F012500F083
:101B2000C9FFA76B002FBCD031462046013FFFF70D
:101B3000CFFDA763236973B104F1100000F0F6FB39
:101B400048B14FF0E0234FF08052C3F8042DBFF3AB
:101B50004F8FBFF36F8F00F0CDFF012004B0BDE8C1
:101B6000F0812046FFF7C7FD00F0D2FAD6E7204605
:101B7000FFF7C1FD00F0CCFA2046FFF76BFD00280F
:101B8000CCD092E730B5074A002352F8335002EB2D
:101B9000C3041DB942F83310606030BD0133082B17
:101BA000F3D1FAE77802002070B504460D461646D8
:101BB00000F080FF94F84430FF2B04BF002384F82A
:101BC000443094F84530FF2B04BF002384F845309F
:101BD00000F090FFA36B2BB93246294604F1240094
:101BE00000F086FB2046BDE87040FFF784BD000092
:101BF000F8B51A4B1A4D1C680646286804300F4683
:101C0000FFF718FD40B92A681649D06A0B6801220F
:101C1000824023EA02030B60731C07D137B12968A5
:101C20001148BDE8F8400431FFF7E2BC2B68A41965
:101C30005C6007D30D4B18682968BDE8F840043193
:101C4000FFF7E1BC0A4B186829680431FFF7DBFC99
:101C5000084B1A68A24288BF1C60F8BDDC02002055
:101C6000E0030020D8020020E4020020240300202A
:101C700028030020C002002080B5184D184F194ECF
:101C80002B6883B9184B1B68012B09D94FF0E0234F
:101C90004FF08052C3F8042DBFF34F8FBFF36F8F07
:101CA00000F03EFEEBE700F005FFFB68DC68201D5E
:101CB000FFF7C0FC3368013B33602B68013B2B60AE
:101CC00000F018FF04F158000AF000FB206B00F050
:101CD00099FE204600F096FED2E700BFF8020020F1
:101CE000FC020020E002002054030020064A136892
:101CF0001968064B19B94FF0FF321A607047126825
:101D0000D268D2685268F8E728030020C002002099
:101D10002DE9F84F960007463046DDF82C900D4629
:101D2000984600F06DFE824618B94FF0FF30BDE8CE
:101D3000F88F4FF4D07000F063FE0446002800F0E6
:101D4000C580C0F830A03246A52150460AF0A4FA5A
:101D5000236B043E1E4426F00706002D00F0A880E9
:101D60006B1E04F133020F3513F8011F02F8011F37
:101D700009B1AB42F8D1002384F843300A9D062D07
:101D800028BF06254FF0000B04F1040AE562E56464
:101D90005046C4F850B0FFF728FCC5F1070504F120
:101DA0001800FFF722FCC4F898B14FF4A07259460E
:101DB0002461A561646284F89CB104F158000AF0C2
:101DC0006BFA444BE36503F16802D0332266636625
:101DD00001220023C4E93C233F4A404BC4E93E238F
:101DE0003F4BC4F800310B23A4F804314246394676
:101DF000304600F039FE2060B9F1000F01D0C9F87B
:101E0000004000F057FE374B374F1A68374E01320B
:101E10001A603D68002D4ED13C601B68012B1FD11C
:101E2000B04640460135FFF7D5FB072D08F11408F1
:101E3000F7D1DFF8BC802F4D4046FFF7CBFB28469B
:101E4000FFF7C8FB2C48FFF7C5FB2C48FFF7C2FB88
:101E50002B48FFF7BFFB2B4BC3F800802A4B1D60BC
:101E60002A4A2B491368086801331360E26A6364E5
:101E700001239340034314200B6000FB0260514692
:101E8000FFF7B6FB00F036FE224B1B6873B13B68D0
:101E9000DA6AE36A9A4209D24FF0E0234FF08052A7
:101EA000C3F8042DBFF34F8FBFF36F8F01203EE7C0
:101EB00084F8345062E7174B1B68002BD0D13B6885
:101EC000DA6AE36A9A4298BF3C60C9E7504600F07C
:101ED00099FD2AE7040900200E33CDAB34126DE6DC
:101EE000ECDE0500E0020020E003002054030020A7
:101EF000400300202C03002010030020FC020020DF
:101F0000E40200202803002024030020C402002053
:101F1000D8020020D402002013B51C4A1C4B0193A8
:101F200000241C491C4800942346C2F3CF02FFF74B
:101F3000EFFE012808D04FF0500383F31188BFF360
:101F40006F8FBFF34F8FFEE700F02AFB012819D1F6
:101F50004FF0500383F31188BFF36F8FBFF34F8FA0
:101F60000E4B0F4A1B68583313600E4B4FF0FF3275
:101F70001A600D4B18600D4B1C6002B0BDE810409C
:101F800000F018BE0130D6D002B010BD0004000031
:101F9000BC0200204DCB0008791C0008E0030020A3
:101FA00050000020C0020020D4020020DC020020EB
:101FB000024A136801331360704700BFB802002063
:101FC000014B1868704700BFDC020020454B1B68BE
:101FD0002DE9F74F002B7DD1434B1C6801341C6069
:101FE000BCB9424B1A68126842B14FF0500383F3F8
:101FF0001188BFF36F8FBFF34F8FFEE73C4A19681C
:102000001068186011603B4A136801331360FFF7D2
:102010006DFE394E394F3368DFF8E4809C424FF053
:1020200000050AD3DFF8C4B0DFF8D8A0DBF8003031
:102030001B68E3B94FF0FF333360D8F80030DB6A38
:1020400014225343FC58304B1B68012C94BF0024CE
:1020500001240BB900F07BFC2C4B1B68002B18BF34
:1020600044F0010444EA050003B0BDE8F08FDBF85A
:102070000030DB68D3F80C90D9F80420944201D2E8
:102080003260DAE709F1040318460193FFF7D2FA48
:10209000D9F828201AB109F11800FFF7CBFAD9F8BE
:1020A0002C00DAF80010012303FA00F20A43CAF800
:1020B0000020142209F1040102FB0070FFF798FAD6
:1020C000D8F80010D9F82C20CB6A9A4228BF45F0E6
:1020D0000105ABE70C4A13680133136000F037FCCD
:1020E0000020C1E7B8020020DC0200202803002005
:1020F00024030020C8020020C00200205403002056
:10210000E0030020D8020020D0020020CC020020F2
:102110002DE9F843314C236843B94FF0500383F362
:102120001188BFF36F8FBFF34F8FFEE700F0C2FC43
:102130002368013B236024682CB1002400F0DAFC02
:102140002046BDE8F883264B1B68002BF5D0254DB3
:10215000254EDFF898801FE0EB68DC6804F1040985
:1021600004F11800FFF766FA4846FFF763FAE26ADF
:102170003168012707FA02F314200B4300FB0280A9
:1021800049463360FFF734FA194BE26A1B68DB6A91
:102190009A4201D3174B1F602B68002BDCD10CB186
:1021A000FFF7A4FD144D2C6844B1124E0127FFF730
:1021B0000DFF00B13760013CF9D12C600D4B1B685D
:1021C000002BBAD04FF0E0234FF08052C3F8042D1B
:1021D000BFF34F8FBFF36F8F0124AFE7B80200202A
:1021E000E002002010030020D80200205403002049
:1021F000E0030020CC020020D002002008B550B936
:102200004FF0E0234FF08052C3F8042DBFF34F8FFF
:10221000BFF36F8F08BD0A4B196841B14FF05003EF
:1022200083F31188BFF36F8FBFF34F8FFEE7FFF784
:10223000BFFEFFF7DDFCFFF76BFF0028E0D0E9E70A
:10224000B8020020174B1A68174B12B101221A600E
:1022500070471A60154B1B68B3FA83F3DBB2142284
:10226000C3F11F0312485343C118C25842B94FF07B
:10227000500383F31188BFF36F8FBFF34F8FFEE7D7
:102280004A68083352684A6003449A4208BF526859
:10229000084B08BF4A60D2681A601B68064A583368
:1022A00013607047B8020020CC020020D802002042
:1022B00054030020E00300205000002010B50C461D
:1022C00040B94FF0500383F31188BFF36F8FBFF312
:1022D0004F8FFEE7054B19681831FFF794F9204638
:1022E0000121BDE81040FFF783BC00BFE0030020E0
:1022F00038B50D46144640B94FF0500383F31188AA
:10230000BFF36F8FBFF34F8FFEE7074B196818318C
:10231000FFF76EF9002C21460CBF28464FF0FF3026
:10232000BDE83840FFF764BCE003002038B5C3685F
:10233000DC6844B94FF0500383F31188BFF36F8F0B
:10234000BFF34F8FFEE704F118052846FFF772F937
:10235000114B1B68E3B9251D2846FFF76BF90F49A0
:10236000E26A08680123934003430B600C4B14207E
:10237000294600FB0230FFF73BF90A4BE26A1B6873
:10238000DB6A9A4283BF084B01201860002038BDE9
:1023900006482946EFE700BFB8020020D802002017
:1023A00054030020E0030020CC0200201003002092
:1023B000034B1B680360034B1B684360704700BFFF
:1023C000C8020020DC02002070B50C46054640B96A
:1023D0004FF0500383F31188BFF36F8FBFF34F8F1C
:1023E000FEE741B94FF0500383F31188BFF36F8FBD
:1023F000BFF34F8FFEE700F05DFB0F4B19682368BA
:102400005A1C10D00D482E6800686A68864201D0B8
:102410008A420FD9881A83420AD95B1A134423606F
:102420002846FFF7C5FF002400F064FB204670BD7E
:10243000002323600124F7E7DC020020C80200200B
:10244000014B01221A607047CC020020054B1B682B
:1024500033B1054B1868B0FA80F04009400070476E
:1024600001207047D4020020B8020020F8B50446CD
:1024700008B90020F8BD224B1B68834208D04FF0FA
:10248000500383F31188BFF36F8FBFF34F8FFEE7C5
:102490001B6D43B94FF0500383F31188BFF36F8F67
:1024A000BFF34F8FFEE7C16AC26C013B91420365E7
:1024B000DFD0002BDDD1061D3046FFF7BBF8114FF2
:1024C000114A50B9E16A14234B43FB582BB91368E6
:1024D00001258D4023EA05031360E36CE362C3F139
:1024E0000701A1611168012404FA03F514200D43CA
:1024F00000FB037031461560FFF77AF82046B9E714
:10250000E003002054030020D8020020914208B5C7
:10251000416000610AD8D21A83699A420DD2084BF1
:10252000011D1868FFF76FF8002008BD9A4201D21C
:10253000994202D2034B011DF3E70120F5E700BFEA
:10254000F0030020F4030020F8B50F4C00F0B2FABD
:102550002568ADB90D4F0E4E3846FFF73BF83046B3
:10256000FFF738F80B4B1F600B4B2A460C210A2053
:102570001E60FFF735F9206010B10849FFF702FB34
:10258000BDE8F84000F0B6BAEC0300200C040020CF
:10259000F8030020F4030020F003002052CB0008D1
:1025A00007B5FFF7D1FF0F4B1B6843B94FF050033E
:1025B00083F31188BFF36F8FBFF34F8FFEE70A4A93
:1025C0000A4B0193D208022352000093084909489C
:1025D00092B20023FFF79CFB0028E7D003B05DF820
:1025E00004FB00BFEC03002000040000E80300200F
:1025F00057CB0008C52600087FB5154604461A4685
:1026000040B94FF0500383F31188BFF36F8FBFF3CE
:102610004F8FFEE70D4E306888B10529CDE90115D1
:1026200003940EDCFFF712FF0346022B4FF000036A
:1026300030680CBF089A1A4601A9FFF7F5F804B0F4
:1026400070BD002301A9FFF7A1F9F8E7EC03002012
:10265000F7B51A4D2B681A682AB9194A116829600A
:10266000136003B0F0BDDB68DC681E68271D3846C8
:10267000FEF7E0FF236A2046984794F828305B076E
:10268000E8D5A36933449E4206D22868636024617A
:102690003946FEF7B8FFDDE70023009332461946BE
:1026A0002046FFF7A9FF0028D4D14FF0500383F351
:1026B0001188BFF36F8FBFF34F8FFEE7F403002045
:1026C000F00300202DE9F043794F7A4E87B03B6844
:1026D000D3F80080B8F1000F28D0DB68D3F8008071
:1026E0000024FFF765FCFFF76BFC33689842054652
:1026F0001ED3306024B3704B1B681C68B4FA84F49A
:1027000064096E4B22461868A8EB0501FFF74CFAE6
:10271000FFF7FEFC88B94FF0E0234FF08052C3F87A
:10272000042DBFF34F8FBFF36F8F06E00124D8E76E
:10273000FFF78EFF3560FFF7EBFCDFF880817AE072
:102740008045DED8FFF7E4FC3B68DB68D3F80C90EB
:1027500009F10400FEF76EFF99F82830580719D5E3
:10276000D9F8181043462A4641444846FFF7CEFEA2
:10277000A0B100942346424621464846FFF73CFF5D
:1027800060B94FF0500383F31188BFF36F8FBFF32D
:102790004F8FFEE723F0010389F82830D9F8203065
:1027A00048469847C9E794F82830A16943F00103E7
:1027B00084F82830049B2A4619442046FFF7A6FED9
:1027C000002838D0236A2046984794F828305907C3
:1027D00031D5A269049900230A4400931946204682
:1027E000FFF70AFF38BB4FF0500383F31188BFF3A4
:1027F0006F8FBFF34F8FFEE794F8283023F001036B
:1028000084F8283017E094F828300499A16143F047
:10281000010384F8283041B94FF0500383F3118845
:10282000BFF36F8FBFF34F8FFEE72B462A46294435
:102830002046FFF76BFED8F80000002203A9FFF73F
:1028400002F900283FF443AF039B002BF3DB059C08
:10285000636913B1201DFEF7EDFEFFF7B1FB33688E
:102860009842054601D2FFF7F3FE039B3560092B22
:10287000E1D801A252F823F0A7270008A7270008F3
:10288000A7270008F927000807280008A128000842
:10289000A7270008A7270008F9270008072800082D
:1028A00094F828309A07A9D4204600F0ABF8C2E784
:1028B000F4030020E4030020F0030020EC030020D8
:1028C000064B41F658321B68B3FBF2F30022434338
:1028D0009A4200D1704700BF0132F9E7440000205E
:1028E00038B5044672B60121132009F0B9FA002563
:1028F0000121132009F01EFB4FF49670FFF7E0FF53
:102900000021132009F016FB01354FF49670FFF7F4
:10291000D7FFAC42ECD14FF4FA60FFF7D1FFE6E706
:10292000FEF772BD08B50420FFF7DAFF08B5FFF720
:10293000F9FF08B50520FFF7D3FF08B5FFF7F9FF4A
:1029400008B50620FFF7CCFF08B5FFF7F9FF704781
:1029500008B5FFF77BFD012803D0BDE8084000F073
:1029600001B908BDF8B50C4617490B6807464BB9C5
:10297000164A174B9B1A174A22F003029B1A164A53
:102980000B601360FFF762FD01281FBF114B104D54
:1029900023F00303ED1A08BF6D46FFF709FB0F4B49
:1029A0001E683219AA4207D90C233B60FFF7B0FB1F
:1029B0004FF0FF363046F8BD1A60074A13681B1BFC
:1029C0001360FFF7A5FBF5E720040020400A002074
:1029D000000001200004000024040020000000206A
:1029E000EFF305830BB9FFF7E3BA4FF0500383F31E
:1029F0001188BFF36F8FBFF34F8FFEE7FFF788BBE0
:102A000009F098BB09F09EBB06480068006880F397
:102A1000088862B661B6BFF34F8FBFF36F8F00DFD8
:102A200000BF000008ED00E082B0002301930D4BD1
:102A30001B68013308D04FF0500383F31188BFF3B4
:102A40006F8FBFF34F8FFEE74FF0500383F3118872
:102A5000BFF36F8FBFF34F8F019B002BFCD002B0F1
:102A6000704700BF040000204FF0807340F8043C22
:102A700021F00101044B40F8081C40F80C3C40F8E0
:102A8000202C4038704700BF292A000800000000B1
:102A9000074B19680868B0E8F00F80F30988BFF3A6
:102AA0006F8F4FF0000080F311884EF00D0E7047CD
:102AB000E00300204FF0500383F31188BFF36F8FC2
:102AC000BFF34F8F0A4A13680133012B13600ED1F5
:102AD0004FF0E023D3F8043DDBB243B14FF0500395
:102AE00083F31188BFF36F8FBFF34F8FFEE77047FB
:102AF00004000020084A136843B94FF0500383F3E1
:102B00001188BFF36F8FBFF34F8FFEE7013B136058
:102B10000BB983F311887047040000200000000007
:102B2000EFF30980BFF36F8F0D4B1A6820E9F00FA8
:102B300010602DE908404FF0500080F31188FFF736
:102B400081FB4FF0000080F31188BDE80840196850
:102B50000868B0E8F00F80F30988BFF36F8F704703
:102B6000E003002008B54FF0500383F31188BFF352
:102B70006F8FBFF34F8FFFF729FA28B14FF0E02393
:102B80004FF08052C3F8042D002383F3118808BD51
:102B90004FF0E022002313619361054B4FF47A71EB
:102BA0001B68B3FBF1F3013B5361072313617047CB
:102BB0004400002013B5284B1A78D2B20192FF22AC
:102BC0001A701B78254ADBB28DF803309DF803306C
:102BD00003F050031370224A072313609DF803008B
:102BE000000603F1FF310AD4032B11D04FF050033C
:102BF00083F31188BFF36F8FBFF34F8FFEE79DF80C
:102C0000033011605B00DBB28DF803300B46E5E763
:102C10004FF440731360019B0F4ADBB213704FF007
:102C2000E0230024D3F8202D42F46002C3F8202DC5
:102C3000D3F8202D42F06042C3F8202DFFF7A8FF03
:102C4000084B1C60FFF7E0FEFFF7FCFAFFF7ECFE15
:102C5000204602B010BD00BF00E400E02C040020BC
:102C60002804002004000020EFF305830F2B0ED969
:102C7000114A9B5C114A12789A4208D94FF05003CE
:102C800083F31188BFF36F8FBFF34F8FFEE74FF0D1
:102C9000E0230B4AD3F80C3D126803F4E06393423F
:102CA00008D94FF0500383F31188BFF36F8FBFF340
:102CB0004F8FFEE7704700BFF0E300E02C040020D8
:102CC000280400207047704770470846704700008E
:102CD00030B5C0E90223039B044D0361049B4361AB
:102CE000059B8361C0E9005130BD00BF00CC0008E6
:102CF0002DE9F041104D2F4604468C4690469E46E5
:102D0000061D0FCF0FC697E80700069B86E8070051
:102D10001C35A362079BE3620FCD04F13006C4E9C2
:102D2000088E0FC62B683360002363642046C4F806
:102D300000C0BDE8F08100BF44C9000810B50446DA
:102D400000680368DB6B98472068216A0368826823
:102D50001B6898472068216A036802695B68BDE8C0
:102D600010401847006803681B6C18472DE9F74F9F
:102D7000057CDDF834909B460C9B0193437CED0869
:102D800005EBD3054D44044628468846924607F095
:102D90007FFB0646284607F07BFB0746207C082879
:102DA0005FFA88F35FFA8AF195BF304630460B43ED
:102DB00043EA1A238CBF00F8023B00F8013B638909
:102DC00088BF717043454A4631D1594609F000FB2E
:102DD00020680368DB6A98472068216A0368C26834
:102DE0005B689847206803682A46D3F830B03146BC
:102DF0003B46D8472068216A036802695B689847A8
:102E0000206803685B6B98472389434506D1217C82
:102E100001984A4607EBD10109F0DAFA304607F08B
:102E200039FB384603B0BDE8F04F07F033BBA1894A
:102E300009F032FACCE72DE9F84FDDF830809DF843
:102E400034B004460E46174602EB080A994613B9F9
:102E5000837C0AEBD30A504607F01AFB711E054625
:102E6000C319984258D1B9F1000F5AD00A99424675
:102E700009F0AEFABBF1000F07D0E26A2068013218
:102E8000036855D15B6932219847504607F000FB33
:102E9000064620680368DB6A98472068216A036851
:102EA000C2685B689847206803681B6B52469C4663
:102EB00029463346E0472068216A036802695B6857
:102EC0009847206803685B6B9847BBF1000F07D0F9
:102ED000E26A20680132036848D15B6901219847A2
:102EE0006369002B63D0B8F1000F62D0E27CB05C64
:102EF00098478246B9F1000F07D1A37C0B9807EBE6
:102F0000D3014246314409F063FA284607F0C2FA79
:102F1000304607F0BFFA26E011F8012F00F8012B28
:102F20009FE7A27CA18908EBD20209F0B5F9A1E7DD
:102F3000DB69984706462068E16A03689B68984702
:102F40000028A2D020680368DB6C984720680368DB
:102F5000DB699847E369801B9842ECD3284607F069
:102F600099FA6FF4307A5046BDE8F88F9B690121D9
:102F7000984720680368DB69984782462068E16AC1
:102F800003689B6898470028AAD020680368DB6C18
:102F9000984720680368DB699847E369A0EB0A005B
:102FA0009842EBD3284607F075FA3046D7E79A46A1
:102FB000A0E7C2469EE72DE9F0431E46037987B09D
:102FC00005468C46174643B9CDE900620A46018999
:102FD000FFF7CCFE07B0BDE8F08390F9114090F800
:102FE00011E0002CB8BF0734C4F3C704601E40B220
:102FF00004AA4FEAC00803461146002B15DA2A7CC2
:103000000130B8BF0024D2080C44501E40B2431C0B
:1030100016D10123CDE9027300230196009302EB40
:10302000DE022846FFF707FFD4E7B5F80890013B1A
:1030300049FA08F902F8019B5BB2A8F10808DCE73D
:10304000C3002CFA03F304F8013B0138DEE7F0B5C6
:1030500089B000238DF81730037904460A465BB91E
:10306000012101910DF1170100910189FFF77EFE09
:103070009DF8170009B0F0BD90F91130457C002B88
:10308000B8BF0733C3F3C703581E40B206AF4FEAB9
:10309000C00C06463946002E17DA267C0130B8BF30
:1030A0000023F6080B44701E40B2471C18D10123C0
:1030B000CDE902330DF1170301930023009306EBD2
:1030C000D5022046FFF7B7FED2E7B4F808E0013E8C
:1030D0004EFA0CFE07F801EB76B2ACF1080CDAE719
:1030E000C70022FA07F703F8017B0138DCE72DE976
:1030F000F0431F46037987B005468C4616464BB908
:10310000CDE9003713460A464189FFF72FFE07B085
:10311000BDE8F08390F9114090F811E0002CB8BFA1
:103120000734C4F3C704601E40B204AA4FEAC008C3
:1031300003461146002B15DA2A7C0130B8BF002463
:10314000D2080C44501E40B2431C16D1012300206B
:10315000CDE90060CDE9027302EBDE022846FFF7FD
:103160006AFED4E7B5F80A90013B49FA08F902F87B
:10317000019B5BB2A8F10808DCE7C3002CFA03F35B
:1031800004F8013B0138DEE7F0B5037989B0044665
:103190000D468DF8172053B90122CDE900320A46B9
:1031A0000DF117034189FFF7E1FD09B0F0BD90F97A
:1031B0001130467C002BB8BF0733C3F3C703581E3A
:1031C00040B206AF4FEAC00C02463946002A17DA71
:1031D000227C0130B8BF0023D2080B44501E40B2FD
:1031E000471C18D10020012301900DF11700009019
:1031F000CDE9023302EBD6022046FFF71CFED4E7EE
:10320000B4F80AE0013A4EFA0CFE07F801EB52B2AC
:10321000ACF1080CDAE7C70025FA07F703F8017BE1
:103220000138DCE72DE9F0479DF820A09DF82870D3
:103230009DF82C901C4643EA0A03072B05460E46D0
:10324000904641D854453FD3FFF701FFCAF1080A21
:10325000FF22631C02FA03F342FA0AF21343DB4330
:10326000DBB280EA0802134205D1B9F1000F02D1A6
:103270000020BDE8F08720EA030403EA08031C43AA
:10328000E4B2224631462846FFF77EFF28680368ED
:103290001B6A98479DF824804FF47A73814618FB87
:1032A00003F8286803681B6A9847A0EB09034345A5
:1032B00002D36FF00F00DCE731462846FFF7C7FE68
:1032C00060400742EDD1D3E76FF00A00D1E77FB548
:1032D0009DF824600396089E9DF82850CDE901369C
:1032E000002300930446FFF7A6FD38B935B1A36962
:1032F00023B1204604B0BDE87040184704B070BD4B
:10330000F0B590F91140477C002CB8BF0734E410A9
:10331000013C87B064B2E60005AD002C0DDA9DF8E3
:10332000341002919DF83010CDE90031134605A903
:10333000FA08FFF7CCFF07B0F0BD41FA06FC013CEC
:1033400005F801CB64B2083EE7E77FB59DF824603D
:103350000396089E02960026CDE9003601239DF8CB
:1033600028500446FFF767FD38B935B1A36923B18A
:10337000204604B0BDE87040184704B070BDF0B5F9
:1033800090F91140477C002CB8BF0734E410013C91
:1033900087B064B2E60005AD002C0DDA9DF834105C
:1033A00002919DF83010CDE90031134605A9FA08C5
:1033B000FFF7CBFF07B0F0BD41FA06FC013C05F872
:1033C00001CB64B2083EE7E730B587B000238DF843
:1033D000133090F91130427C002BB8BF0733DB105B
:1033E000013B5BB2044605A9D800002B17DA012384
:1033F000CDE902330DF11303019300230093D208AA
:1034000005A92046FFF717FD054628B963691BB1DA
:103410009DF813009847E080284607B030BDE58945
:10342000013B054101F8015B5BB20838DDE770B58F
:103430000B46054601F11404303053F8046B40F894
:10344000046BA342F9D16A640E1F01F110042868CD
:1034500056F8041F036882681B689847A642F6D195
:1034600070BD406C18B970478B4204D01830037897
:10347000002BF9D118467047F8B50546FFF7F1FF64
:1034800088B1041D05F12C0605F1400756F8041F0C
:10349000002904DB2868226803685B689847BE42FD
:1034A00004F10404F2D1F8BD0648074B074A1B6833
:1034B000B3FBF2F310B544684B434268121B9342CE
:1034C000FBDC10BD001000E04400002040420F0073
:1034D000CAB21A2A08460AD801F4E0630E4951F824
:1034E00022201343013308BF4FF0FF30704701F033
:1034F000C003C02B0CD1C72A0AD8084B01F03F02E9
:1035000053F82210044A00F4E06352F82120E8E75F
:103510004FF0FF30704700BF00D50008E0D400082E
:10352000C06903F037BEC06903F066BEF8B5074650
:103530000C465D1E8E18B44200D1F8BD14F8011B74
:10354000F869002203F05AFE05F8010FF3E708F0CE
:1035500049BC4B1C084603D00021C0B208F072BB26
:103560007047084611461A46431C02D0C0B208F004
:10357000EDBA7047C06903F03EBED0E90812C069D9
:1035800003F018BE084611461A46431C01D008F045
:1035900047BD0020704708F0ADBD08F0A9BD084642
:1035A00008F0AABD4B1C084601D008F0E9BB7047E3
:1035B0001FB5084611461A46431C13D00024CDE916
:1035C0000044CDE9024421B1074B0393074B00911E
:1035D0000293694608F078FB029B1BB103226946FF
:1035E0006846984704B010BD5736000837360008C3
:1035F0004B1C084601D008F0D7BC00207047084695
:10360000431C114601D008F095BC70470846431C86
:10361000114601D008F024BC704790F8282012B160
:1036200003689B6A1847704790F8282012B1036816
:103630009B6B18477047012A02D101600020704738
:10364000022A05D0032AF9D0002AF7D10260F5E753
:103650000B680360F2E703681847000070B586B096
:1036600004AD85E80C0004230322CDE901320122D8
:1036700000230E46009219460446FFF729FB95E801
:103680000300064B236004F12003E66183E8030096
:103690000023204684F8283006B070BD5CCC0008BA
:1036A0002DE9F04385B00F464FF0000801230DF1DE
:1036B0000F0240F6E70106468DF80F8000F08FFDFF
:1036C000044600284ED133683046D3F8C4309847BA
:1036D00004218146FFF7C5FE032105464846FFF752
:1036E000C0FE002842D117F1090F52DA6FF00C0426
:1036F00038E00E2FFBB20EDD0933DBB21F2BF5D8FD
:1037000001250723224600950421304600F048FD9C
:10371000042304460DE01133DBB21F2BE6D801224F
:10372000234600920421304600F03AFD4546044607
:10373000032386F85831ACB92946304602F02EF9F9
:10374000044678B90422F9B2304601F07FF9044604
:1037500040B901230DF10F0240F6E701304600F0B9
:1037600037FD0446204605B0BDE8F083002DC0D1EA
:103770000E2FBBDC07F11103DBB21F2BB6D80122E1
:10378000234600920421304600F00AFD032304463C
:10379000CFE7002DAAD007F10903AEE710B5044624
:1037A000034803F090FF2368BDE81040184700BFAE
:1037B00094050020014803F06CBF00BF9405002071
:1037C000012A02D1016000207047022A05D0032A95
:1037D000F9D0002AF7D10260F5E70B680360F2E741
:1037E00010B5044600F002F9014B2360204610BDDD
:1037F000B8CC0008F0B587B004469DF844E09DF8C9
:1038000030509DF834609DF93870BDF83CC0CDF85B
:1038100014E0DDF840E0CDF810E0CDE9027CCDE920
:10382000005600F0F3F8014628B9204607B0BDE87D
:10383000F04000F015BC07B0F0BD00001FB500233C
:10384000CDE90013084B03930848094B02936946DE
:1038500003F0E8FE029B1BB10322694668469847C5
:1038600005B05DF804FB00BF9D37000894050020FB
:10387000C1370008FFF7E2BF10B500F038FA044680
:10388000054803F023FF044803F014FF10B1024879
:1038900003F016FF204610BD9405002008B5A1F1E5
:1038A0001B030846032B16D8DFE803F00A020611B3
:1038B0000B4803F043FF08BD094803F00AFFFAE78D
:1038C000074803F01DFF80F00100C0B2F3E7044891
:1038D00003F02DFFF7E7BDE8084008F065BB00BF27
:1038E000940500200846A0F11B03032B114601D9C3
:1038F00008F0B6BA7047000008461D28114604D8E3
:103900001B2810D809D008F015BB1E28FBD1B2FA2D
:1039100082F10548490903F0FDBEB2FA82F102487E
:10392000490903F0DFBE70479405002037B504460F
:103930002C2006F0ABFD0A4B0A4905460CCBFFF7DD
:103940008DFE094B2B601C221E23CDE90032294637
:103950001D231B222046FFF7CBF9204603B030BDC4
:10396000E0CD0008940500208CCD00084AB116294E
:103970000B466FF00800A8BF16238342B8BF03466A
:1039800013700931C9B21F298CBF6FF00C000020E1
:1039900070477FB503680022DB6C04460D469847EC
:1039A00008BB8DF80F0001230DF10F0240F6E7016F
:1039B000204600F014FCB0B9012602460096072309
:1039C0000421204600F0ECFB68B90422E9B220464D
:1039D00001F03CF838B933460DF10F0240F6E7012B
:1039E000204600F0F5FB04B070BD000010B50446A1
:1039F00000F0E0F9034B2360034BC4F84C31204640
:103A000010BD00BFF0CD00085FCB00082DE9F341E9
:103A100098469DF8343001930C9B00930E46174650
:103A2000BDF82C309DF824209DF820109DF92850D9
:103A3000044602F083FCE0B94146204601F0C6F896
:103A4000B8B93946204601F053F890B92368314699
:103A50001B6B2046984760B90121204601F09EFF6C
:103A600038B923689B6C2946204602B0BDE8F04176
:103A7000184702B0BDE8F081F0B585B00E469DF85C
:103A80003870029711460D9F01971A46BDF83030E5
:103A900000930A9B9DF92C50044602F0A9FC90B9B2
:103AA000236831461B6B2046984760B901212046A8
:103AB00001F074FF38B923689B6C2946204605B095
:103AC000BDE8F040184705B0F0BD73B50E4611468D
:103AD0001A469DF824300193089B00939DF81830F6
:103AE0009DF91C50044602F0FBFC90B92368314656
:103AF0001B6B2046984760B90121204601F04EFF1C
:103B000038B923689B6C2946204602B0BDE8704056
:103B1000184702B070BD000001297FB507D0022907
:103B200028D0C1B16FF0130007B05DF804FB00238B
:103B30000593174B04934FF0080C0A23CDE9023C80
:103B40004FF0120E0723CDE9003E124A1249092315
:103B5000FFF75CFFE8E70E4B0491039310210A2363
:103B6000CDE901310D4B00930D4A0E4B0A49FFF789
:103B700083FFD9E700230393054B02930A22012315
:103B8000CDE9003204490622FFF79FFFCCE700BFD2
:103B9000CDCCCC3F0000FA420000D94333331C4364
:103BA0009A9999400000A04070B50C46054614490A
:103BB00020461646FDF77AFAF0B112492046FDF785
:103BC0006BFAC8B12EB121462846BDE8704001F01D
:103BD0008DBED5F854112046FCF7ACFF0A4920F001
:103BE0000040FDF763FA0028EDD02146284600F09A
:103BF00028FC0028E7D070BD6FF00B00FBE700BF8A
:103C000000001643000070440000A0410022FFF7AE
:103C1000CBBF0000074B30B505460FCB85B08DE814
:103C20000F002B686946D3F890302846984705B0B6
:103C300030BD00BF74C9000813B5036800220092AC
:103C40005C6940F2722202236FF07F41A04702B00C
:103C500010BD0000074B30B505460FCB85B08DE891
:103C60000F002B686946D3F884302846984705B082
:103C700030BD00BF74C9000808B50846FCF7AAFBB0
:103C8000034B0022FCF74AFDFCF7E0FE08BD00BF35
:103C900000402F40036889B2D3F8C8301847D0F8E5
:103CA0005C01704700F00E03062B0BD0082B0CD0E4
:103CB0000A2B0CD00138C0B2FD288CBF6FF0010078
:103CC000002070476FF43070704702487047024818
:103CD000704700BF3EFDFFFF3DFDFFFF08B5D0F878
:103CE0005C010221FFF7C8FB4FF0FF3008BD1FB594
:103CF0000123CDE9003349BA0223ADF80C1003AA21
:103D00001946D0F85C01FFF73AFB05B05DF804FBFB
:103D10001FB50023ADF80C300123CDE9003303AA11
:103D200002231221D0F85C01FFF7EAFABDF80C007B
:103D300040BA80B205B05DF804FBD0F85C3110B534
:103D40000446186803689B689847C1B22046BDE8DE
:103D5000104003F03AB8036810B5D3F8C83044F205
:103D6000FF310446984728B9236820469B68BDE880
:103D70001040184710BD036810B5D3F884300446CE
:103D8000984730B110BDD4F85C3118680368DB6C1B
:103D90009847D4F85C311868596A0268926890476D
:103DA0000028F0D023682046D3F88830BDE81040C2
:103DB0001847000038B5FF2204460D462E4902F090
:103DC000C9FF0022C4F85421C4F86821C4F8842132
:103DD000C4F88821294AC4F89821294A294B106936
:103DE00023600321002384F858110121C4E95C33C6
:103DF000C4E96933C4E96B33C4F84C3184F85031F9
:103E0000C4F8603184F86431A4F8663184F86C1128
:103E1000C4F87831A4F87C3184F87E31A4F880317C
:103E2000C4F88C3184F89031C4F89431C4F89C0102
:103E300084F8A031A4F8A231C4F8B431C4F85C51BC
:103E4000022284F8493184F84A310423C4E9022368
:103E5000616010230821C4E9041320204023C4E931
:103E6000060380254FF48073C4E908534FF40073B0
:103E7000A362204638BD00BF0024743F0001060342
:103E800074C90008C4CE0008D0F85C3170B504468F
:103E9000186802680D461668996A8268B047D4F8B7
:103EA0005C311868996A02685668C268B047D4F8ED
:103EB0005C311868036801215B699847D4F85C316C
:103EC0001868996A026856680269B047F5B1D4F873
:103ED0005C3118680368DB6998470646236820460A
:103EE0009B689847054688B1D4F85C311868036828
:103EF000DB699847801BB0F57A7F08D2D4F85C3133
:103F0000186803680A215B699847E7E70025284697
:103F100070BD30B5044685B0D0F85C010D46012176
:103F2000FFF7AAFA0023CDE900330DF10F02D4F810
:103F30005C01AD00012384218DF80F50FFF71FFABB
:103F4000D4F85C3105461868036801215B6998471D
:103F5000284605B030BD0121FFF7DBBF7FB5044621
:103F60000D461646D0F85C010121FFF785FA46B1EF
:103F70000023CDE900331A46D4F85C011946FFF757
:103F8000FEF90123CDE9003303AAD4F85C018DF8D2
:103F90000C508021FFF7F3F904B070BD90F84A117E
:103FA0000122FFF7DBBFD0F85C312DE9F0411D683D
:103FB0002A680446D768126D0E462846596A90470B
:103FC000D4F85C311B68014632462846BC465B6922
:103FD000BDE8F0416047FFF7E6BFD0F85C3170B54F
:103FE0001C68596A226820461569126D90472B4655
:103FF00001462046BDE870401847FFF7EEBF0000BD
:1040000037B50C46054600212046FDF74FF8D8B1DC
:104010000F492046FDF740F8B0B12046FCF7FCF907
:104020000C4B0022FCF77AFBFCF710FD01238DF806
:1040300007000DF10702D5F85C0140F6E701FFF734
:1040400056F8002003B030BD6FF01000FAE700BF53
:1040500000000C4300000440D0F85C01FFF7E7B912
:104060001FB50123CDE900338DF80F100DF10F02BC
:104070009D21D0F85C01FFF782F905B05DF804FBE3
:104080001FB50B0C8DF80C300B0A8DF80D30012389
:10409000CDE900338DF80E10032303AA8321D0F855
:1040A0005C01FFF76CF905B05DF804FB1FB50B0C64
:1040B0008DF80C300B0A8DF80D3000220123CDE96C
:1040C00000328DF80E10032303AA8221D0F85C0180
:1040D000FFF755F905B05DF804FB00002DE9F0434A
:1040E0001D462D4B87B0044618689B88ADF80C30F0
:1040F00094F860319DF838700290062B0E46904679
:1041000045D8072384F8603194F860310F9818334C
:104110006B4413F8179CFCF7BFFD2049FCF7C8FE61
:10412000FDF714F8FF2E08BF0126B8F1FF0F18BFE6
:10413000C146FF2D08BF0A258DF812500125CDE993
:104140000055030CFF2F8DF814304FEA102308BFE1
:1041500000278DF815308DF816000723D4F85C0180
:104160008DF8106004AA88218DF811908DF81370D5
:10417000FFF705F940B9CDE9005503460246C521D0
:10418000D4F85C01FFF7FBF807B0BDE8F0830C2B17
:10419000BAD90C23B6E700BF66CB000800007A410D
:1041A0001FB58DF80D309DF818308DF80F300123B4
:1041B000CDE900338DF80C108DF80E20042303AAEE
:1041C0009521D0F85C01FFF7DAF805B05DF804FB43
:1041D00008B5D0F85C01FEF78AFF002008BD10B5D5
:1041E000044610461A460346D4F85C01FEF7E3FE87
:1041F000D4F85C01BDE81040FFF7E6B82DE9F041C6
:10420000002486B0FF270226CDE90274CDE90046DE
:1042100005462346224640F6E201D0F85C01FFF74E
:1042200001F8CDE90274CDE900462346224640F666
:10423000E501D5F85C01FEF7F5FF6FF07F412846F8
:10424000FFF734FFD5F85C31186803680A215B6911
:1042500098472746264601230DF1170240F619011B
:1042600028468DF81760FFF7BAFF9DF8170000F099
:104270000100A04001343843082CC7B2EBD12B68B1
:1042800002244FF0FF089B6828469847CDE9014873
:1042900003960096D5F85C010023012240F6E20166
:1042A000FEF7C0FFCDE90286CDE900640023D5F812
:1042B0005C01012240F6E501FEF7B4FF384606B086
:1042C000BDE8F08110B586B00E248DF815300123BD
:1042D000CDE9013300920B46022205A9D0F85C011A
:1042E0008DF81440FFF731F806B010BD10B586B058
:1042F0001E248DF815300123CDE9013300920B46C1
:10430000022205A9D0F85C018DF81440FEF7DFFF0A
:1043100006B010BD1FB55BBAADF80C30BDF8183053
:104320005BBAADF80E300123CDE9003349BA08235A
:1043300052BAADF80810ADF80A2019460DEB030289
:10434000D0F85C01FFF71BF805B05DF804FB07B57A
:1043500000238AB200931146FFF7DCFF03B05DF83B
:1043600004FB1FB50123CDE9003309BA03910423EF
:1043700003AA8621D0F85C01FFF701F805B05DF8CB
:1043800004FB30B50D4685B090F858110446D0F8BE
:104390005C01FFF771F86DB900238DF80C30012333
:1043A000CDE9003303AAD4F85C01D121FEF7E7FF81
:1043B00005B030BD29462046FFF7D3FF0028EBD0DB
:1043C000F6E707B50123CDE900330A460223982119
:1043D000D0F85C01FEF7D3FF03B05DF804FB73B5C2
:1043E000054608464FF07E511646FCF7A3FB4FF0FA
:1043F0007A51FCF7A9FC08F0D3F8FCF7A7FE4FF0C0
:104400007E51C4B23046FCF797FB4FF07A51FCF76F
:104410009BFC08F081F8FCF799FEE107C3B25CBF92
:1044200004F1FF34E4B2DA075CBF0133DBB201A967
:1044300028468DF804408DF80530FFF7C2FF02B022
:1044400070BD73B5002305460846ADF804300C4630
:10445000FCF756FEA0F286331A2B21D9A0F25F3367
:10446000072B28D9A0F20B33082B27D9A0F5EB7323
:10447000282B26D9A0F5D7730A2B25D94FF08141D7
:104480002046FCF759FB4FF0814106462046FCF7D9
:1044900051FB324601462846FFF7A1FF02B070BD2E
:1044A000E122E92301A928468DF804208DF8053082
:1044B000FFF787FFF2E7D722DB23F3E7C122C5230B
:1044C000F0E775228123EDE76B226F23EAE71FB542
:1044D000FF238DF80F300123CDE900330DF10F02DA
:1044E0001121D0F85C01FEF70BFF9DF80F0005B01D
:1044F0005DF804FB2DE9F047984603689B68044685
:104500000F4616469847002838D1FF2E00F28280C9
:1045100023683146DB6E2046984723680546D3F86A
:104520001C903246434639462046C84730BB204699
:104530004FF47A7305EB8505B5FBF3F5FFF7C7FF7D
:10454000D4F85C31804618680368DB699847053504
:104550000746D4F85C3118680368DB6C9847D4F8D8
:104560005C3118680368DB699847C01B854207D235
:10457000236820461B6A98476FF00400BDE8F08767
:10458000D4F85C311868596A02689268904700282C
:10459000DFD0B8F1030F14D1236820465B6F984732
:1045A000C3070ED4D4F8B411204601F00F0102F075
:1045B0000BFB236844F2FF31D3F8C83020469847FC
:1045C000C7E7D4F85C3118680368DB69984705468B
:1045D0003046FBF7FFFE114B0022FBF775FF8046CC
:1045E000E81B8946FCF758FBFBF716FF0C4B002233
:1045F000FCF794F80B46024649464046FCF78EF815
:10460000FCF744FA2368C4F888011B6A2046BDE819
:10461000F04718476FF00300B0E700BF00002040EC
:1046200000408F40F7B505460E46FFF750FF0128C2
:1046300033D12B6828469B689847044650BBD5F871
:104640005C010221FEF718FFB168284602F0AAFBC0
:10465000F1680746284602F0A5FB0094234682B283
:10466000B9B22846FFF756FE044698B92B6844F2C3
:10467000FF31D3F8C83028469847044650B97368CC
:104680000193F3780093B378727831782846FFF776
:1046900025FD0446204603B0F0BD6FF01304F9E792
:1046A00010B50446FFF713FF01280DD123682046FB
:1046B0005B6F9847C3050AD410F0800F14BF6FF0EA
:1046C0000E004FF0FF3010BD6FF01300FBE7014804
:1046D000F9E700BF42FDFFFF73B506460D461446DD
:1046E000FFF7F5FE012816D125F00F0343EA141356
:1046F00004F00F0444EA0511D6F85C018DF804308B
:104700008DF80510022301AA4FF4E861FEF7EFFCD3
:10471000002002B070BD6FF01300FAE70000000047
:1047200030B585B004AC04E90E00029CFFF7CFFE63
:1047300018BB019D2846FBF76FFE25A3D3E9002394
:10474000FCF748F9002832D023492846FCF7A4FC9E
:1047500068B32046FBF760FE1DA3D3E90023FCF7F6
:1047600039F938B31D492046FCF796FC002814BFE0
:1047700000206FF0650005B030BD01281DD19DF807
:104780000430053B072B1BD800212046FCF78EFC8C
:10479000C8B113492046FCF77FFCA0B19DF80C304E
:1047A000053B032B8CBF6FF009000020E3E76FF09F
:1047B0006400E0E76FF06500DDE74FF0FF30DAE717
:1047C0006FF00800D7E76FF00700D4E7AFF3008081
:1047D000333333333333E33F000096430000484321
:1047E0000000FF4330B585B004461546FFF76FFE65
:1047F000012807D194F86431012B03D1D4F8940136
:1048000005B030BD0023ADF80C300123CDE90033F5
:1048100003AAD4F85C0102231321FEF771FD15B140
:104820009DF80D302B709DF80C00E9E7F7B50546B3
:10483000D0F85C010F461646FEF7C6FD2B6804460D
:104840005B6F284698476FF430739C4207D110F491
:10485000007F18BF6FF00504204603B0F0BD002CA8
:10486000FAD1420628D4830604D510F0100F08BFF1
:104870006FF0060400230DF10702012128468DF890
:104880000730FFF7AFFF16B1B04228BF3046C2B2C3
:104890009DF8073039462846FFF728FD78B92B6880
:1048A00044F2FF31D3F8C83028469847002C0CBF9B
:1048B00004466FF00604CFE76FF00604DAE704461B
:1048C000CAE70022FFF78EBFF8B505460C46FFF792
:1048D000FEFD012848D195F8607142F21070B84091
:1048E000FCF7DAF94A490646D5F86801FCF72CFAD4
:1048F00001463046FCF7DCFAFCF728FC7B1F012B55
:10490000064687BF0821112300211923B0F57A5FDD
:1049100095F864012ABFBA1EBA009200002895F8E3
:10492000630104EB4000C7EB400714BF4FF0000CDD
:104930004FF0140C01EB8701D2B2614409B2541E4E
:104940000029A8BF641895F8611194FBF2F20431B4
:1049500012FB01F2B5F86611083103EB810303EB9A
:10496000820070438008F8BD60B9D5F870016043DB
:10497000C000FBF72FFD274B0022FBF7A5FDFCF73E
:1049800065F8F0E703283CD195F89931032B3BD823
:10499000DFE803F0022C313406236343043305229D
:1049A000B3FBF2F39CB23022B4FBF2F303EB8300CF
:1049B00000EB800002FB13444000A4B280B214B1AB
:1049C0000234204480B295F89B31C3EBC30203EB61
:1049D000C20300EB4300104B80B25843FCF75CF974
:1049E0000E49FCF765FAFCF7B1FBBCE704EB4404A5
:1049F000C4F34F04D7E76400A4B2D4E704EB440443
:104A0000FAE74FF0FF30AEE76FF00900ABE700BF09
:104A1000000020410000503F00127A001D24F443A2
:104A200010B50C4679B1FFF752FD012805D00328D7
:104A300006D010B16FF0130010BD20700020FBE70E
:104A400002232370FAE76FF00200F5E730B5012387
:104A500085B0CDE9003304460D468DF80C108DF875
:104A60000D20D0F85C01022303AA8E21FEF787FCFB
:104A700008B984F8905105B030BD2DE9F0431E46C9
:104A800085B090F86C319DF8304005468846174651
:104A9000A3B190F860014FF0010909FA00F0FCF7AA
:104AA000FBF8D5F86811FCF703FA4FF08341FCF7E7
:104AB000FDFA0028044618BF4C46E4B2012385F8ED
:104AC0006241CDE9003303AAD5F85C018DF80C8072
:104AD00004238B218DF80D708DF80E608DF80F403A
:104AE000FEF74DFC05B0BDE8F083000000000000BB
:104AF00073B505460E46FFF7EAFC012804465AD175
:104B000000213046FCF7D2FA00283FD02E4930462B
:104B1000FCF7C2FA002839D04FF07C513046FCF740
:104B200013F9FBF779FC26A3D3E90023FBF716FB67
:104B3000FBF78CFFC3B2142B21D8022B26D9033BE1
:104B4000112B23D8DFE803F02F2209220A22222981
:104B5000222222222B222222222D082495F86231A1
:104B600085F85041C5F86861009395F8613195F872
:104B7000601122462846FFF780FF02B070BD7D2BF2
:104B800013D006D81F2B12D03E2B12D06FF0070087
:104B9000F3E7FA2BFAD10624E0E70924DEE7022442
:104BA000DCE70A24DAE70024D8E70524D6E7032463
:104BB000D4E70424D2E76FF01300DEE7AFF3008000
:104BC0007B14AE47E17A843F0000FF4337B50446CB
:104BD0000D46FFF77CFC012811D16B1F072B11D864
:104BE00094F8623184F86051009394F8613194F83C
:104BF000502129462046FFF740FF03B030BD6FF03B
:104C00001300FAE76FF00800F7E737B505460C46E2
:104C1000FFF75DFC012812D1631F032B12D8231F5D
:104C200095F86221DBB285F86131009295F8502148
:104C300095F860112846FFF720FF03B030BD6FF0F4
:104C40001300FAE76FF00900F7E730B585B004AD5F
:104C500005E90E000446029DFFF739FC68B9236898
:104C600001995B6B20469847A8BB23689B6B29463C
:104C7000204605B0BDE830401847012812D19DF804
:104C800004102046FFF7A2FF28BB29462046FFF765
:104C90002FFF00BB9DF80C10204605B0BDE830404A
:104CA000FFF7B3BF032818D19DF805209DF8043005
:104CB000032A15D8092B84F8992114D884F89A313D
:104CC0004FF48073A4F8AA319DF8063084F89B0154
:104CD00084F8A031002005B030BD4FF0FF30FAE776
:104CE0006FF00900F7E76FF00700F4E730B585B023
:104CF0000D0C089C8DF80C30230C8DF80D30012321
:104D0000CDE9003308238DF808508DF80A100D0AFC
:104D10008DF80B2064BA0DEB03028B21D0F85C01F7
:104D20008DF80950ADF80E40FEF729FB05B030BDF7
:104D3000F7B504460D46FFF7CAFBA8BB002128467D
:104D4000FCF7A0F900B1204D2846FBF765FB1AA33C
:104D5000D3E9002306460F46FBF73CFE38B31B4958
:104D60002846FCF799F910B3194B00223046394612
:104D7000FBF7AAFB00224FF08343FBF7A5FB10A330
:104D8000D3E90023FBF7CAFCFBF760FEC4F874010B
:104D9000009094F8793194F87A21D4F87011204673
:104DA000FFF7A4FF03B0F0BD6FF01300FAE76FF058
:104DB0006500F7E7AFF30080333333333333E33F3A
:104DC0000000000080847E419A99193F000048430A
:104DD00000408F400000000037B504460D46FFF745
:104DE00076FB20B1032810D06FF013002AE028468C
:104DF000FBF712FB16A3D3E90023FBF7EBFD18B377
:104E000017492846FCF748F9F0B12846FBF704FBA0
:104E1000144B0022FBF758FB02460B460EA1D1E9CA
:104E20000001FBF77BFCFBF711FED4F87431C4F8EA
:104E300070010093014694F8793194F87A21204664
:104E4000FFF754FF03B030BD6FF06400FAE700BF16
:104E5000333333333333E33F000000008084CE41EB
:104E60000000964300408F40F7B506460F46FFF717
:104E70002EFB002840F03482C6F884713846FBF7D8
:104E8000CBFADBA3D3E9002304460D46FBF764F914
:104E9000FBF7FCFD20F00040FBF7BEFAD6A3D3E9F8
:104EA0000023FBF78DFD002840F0F281D4A3D3E965
:104EB000002320462946FBF74FF9FBF7E7FD20F0DA
:104EC0000040FBF7A9FACCA3D3E90023FBF778FD58
:104ED000002840F0DF81CCA3D3E9002320462946F7
:104EE000FBF73AF9FBF7D2FD20F00040FBF794FA0C
:104EF000C1A3D3E90023FBF763FD002840F0CC8178
:104F0000C3A3D3E9002320462946FBF725F9FBF785
:104F1000BDFD20F00040FBF77FFAB7A3D3E90023E3
:104F2000FBF74EFD002840F0B981BBA3D3E9002375
:104F300020462946FBF710F9FBF7A8FD20F00040BA
:104F4000FBF76AFAACA3D3E90023FBF739FD00288D
:104F500040F0A681B2A3D3E9002320462946FBF7FF
:104F6000FBF8FBF793FD20F00040FBF755FAA2A3F6
:104F7000D3E90023FBF724FD002840F09381C049CA
:104F80003846FBF7D7FD20F00040FBF745FA9AA31F
:104F9000D3E90023FBF714FD002840F08581A2A38C
:104FA000D3E9002320462946FBF7D6F8FBF76EFD30
:104FB00020F00040FBF730FA8FA3D3E90023FBF782
:104FC000FFFC002840F0728199A3D3E9002320461A
:104FD0002946FBF7C1F8FBF759FD20F00040FBF72D
:104FE0001BFA85A3D3E90023FBF7EAFC002840F075
:104FF0005F81A4493846FBF79DFD20F00040FBF798
:105000000BFA7DA3D3E90023FBF7DAFC002840F07C
:10501000518189A3D3E9002320462946FBF79CF858
:10502000FBF734FD20F00040FBF7F6F972A3D3E95B
:105030000023FBF7C5FC002840F03E8180A3D3E9A4
:10504000002320462946FBF787F8FBF71FFD20F0D9
:105050000040FBF7E1F968A3D3E90023FBF7B0FCBC
:10506000002840F02B8178A3D3E90023204629466D
:10507000FBF772F8FBF70AFD20F00040FBF7CCF9D4
:105080005DA3D3E90023FBF79BFC002840F01881C7
:105090006FA3D3E9002320462946FBF75DF8FBF711
:1050A000F5FC20F00040FBF7B7F953A3D3E9002348
:1050B000FBF786FC002840F0058167A3D3E90023B5
:1050C00020462946FBF748F8FBF7E0FC20F00040BB
:1050D000FBF7A2F948A3D3E90023FBF771FC0028F2
:1050E00040F0F2805EA3D3E9002320462946FBF777
:1050F00033F8FBF7CBFC20F00040FBF78DF93EA323
:10510000D3E90023FBF75CFC002840F0DF8056A3C6
:10511000D3E9002320462946FBF71EF8FBF7B6FC2F
:1051200020F00040FBF778F933A3D3E90023FBF725
:1051300047FC002840F0CC804DA3D3E90023204653
:105140002946FBF709F8FBF7A1FC20F00040FBF72C
:1051500063F929A3D3E90023FBF732FC002840F0D0
:10516000B98049493846FBF7E5FC20F00040FBF7E1
:1051700053F921A3D3E90023FBF722FC002840F0D8
:10518000AB803DA3D3E9002320462946FAF7E4FF8C
:10519000FBF77CFC20F00040FBF73EF916A3D3E9B7
:1051A0000023FBF70DFC002840F098803749384673
:1051B000FBF7C0FC20F00040FBF72EF90EA3D3E96B
:1051C0000023FBF7FDFB002800F08D800923D6F8B3
:1051D000742186F87931009296F87A21D6F8701108
:1051E0003046FFF783FD03B0F0BD00BFAFF3008092
:1051F0003333333333331340FCA9F1D24D62503F84
:1052000033333333333317403333333333331D4086
:1052100066666666666623406666666666662740FC
:105220003333333333332D40666666666666374004
:10523000CDCCCCCCCC4C3D403333333333734740AF
:10524000CDCCCCCCCC4C4D40CDCCCCCCCC8C53406C
:1052500033333333337357403333333333535D4056
:10526000666666666686634066666666666667400C
:105270009A99999999496D409A999999995977402C
:1052800000009C4100001C4200009C430080E94358
:105290001F239CE717239AE70F2398E71E2396E71F
:1052A000162394E70E2392E71D2390E715238EE73C
:1052B0000D238CE71C238AE7142388E70C2386E759
:1052C0001B2384E7132382E70B2380E71A237EE75F
:1052D00012237CE70A237AE7192378E7112376E77C
:1052E0006FF013007FE76FF067007CE737B5054686
:1052F0000C46FFF7ECF808B103281CD1042C1DD88C
:10530000DFE804F00403131517000824D5F87431FE
:1053100085F87A41009395F87931D5F870112246D5
:105320002846FFF7E3FC03B030BD0924EEE70A246A
:10533000ECE70B24EAE76FF01300F4E76FF0690085
:10534000F1E77FB58DF813309DF828308DF80E20E9
:105350008DF814309DF820208DF80F200123CDE921
:1053600000339DF824208DF810209DF82C208DF816
:10537000112049BA9DF83020ADF80C108DF812209C
:10538000092303AA8C21D0F85C01FDF7F8FF07B0D0
:105390005DF804FB70B586B005460E461446FFF76F
:1053A00096F8B8BB082C4BD8234632464FF4D86148
:1053B000D5F85C01FDF79BFEE400B5F88011E4B27E
:1053C000A1420A46A8BF22461F2A85F87C411BDC61
:1053D000172A1BDC0F2A1BDC003A18BF012292009F
:1053E000FF2385F87821049395F87E31039395F88F
:1053F0007D3102930023CDE90043284695F87B31A7
:10540000FFF79FFF06B070BD0722E9E70622E7E736
:105410000522E5E7012809D1012C11D83178442271
:10542000284606B0BDE87040FFF756B9032804D1FE
:10543000042C05D13368C5F89C316FF01300E1E707
:105440006FF06800DEE770B588B004460D4616467A
:10545000FFF73DF8002841D1C5B9FF2384F87D51FD
:10546000049394F87E31CDE90253019594F87C3190
:10547000009394F87B3194F87821B4F88011204699
:10548000FFF75FFF0546284608B070BD012384F88A
:105490007D3107AA4FF4D7612046FEF7A0FE0546EE
:1054A0000028F0D19DF81C30D4F85C018DF81D6007
:1054B000C6F3002223F0010313438DF81C3007AA22
:1054C00002234FF4D761FDF712FEFF23049394F8F3
:1054D0007E31039394F87D310293C6E76FF0130594
:1054E000D1E7003940F2FF1218BF0121FFF7ABBF2F
:1054F00070B586B004460D461646FEF7E8FFB0B913
:10550000CDE9035694F87D31CDE9010394F87C315F
:10551000009394F87B3194F87821B4F880112046F8
:10552000FFF70FFF08B984F87E5106B070BD6FF029
:105530001300FAE70A460121FFF7DABF1FB501237E
:10554000CDE900338DF80C108DF80D20022303AA4D
:105550008F21D0F85C01FDF712FF05B05DF804FB68
:105560001FB50123CDE900338DF80C1003AA962155
:10557000D0F85C01FDF703FF05B05DF804FB0021E6
:10558000FFF7EEBF0121FFF7EBBF1FB50023ADF81A
:105590000C308DF80E300123CDE9003303AA03232C
:1055A0001421D0F85C01FDF7ABFE9DF80D309DF89D
:1055B0000C209DF80E001B0243EA0243184305B07D
:1055C0005DF804FB1FB571B1FFF7DFFFC0B2FAF75A
:1055D00011FF0F4B002201F10041FAF775FFFBF7B5
:1055E00055FA04B010BD0123CDE900338DF80F103A
:1055F0000DF10F021521D0F85C01FDF781FE9DF839
:105600000F00FBF749FB4FF03F41FBF79DFBE8E73D
:105610000000E03F0121FFF7D5BF000010B50446B0
:10562000FEF755FF012812D12046FFF7AEFF0346D3
:105630001B04C0F3072048BFA0F58070FAF7DAFE1C
:10564000044B0022FAF740FFFBF720FA10BD024896
:10565000FCE700BF0000D03F0000A0C11FB5002341
:10566000ADF80C300123CDE9003303AA0223172142
:10567000D0F85C01FDF744FEBDF80C0040BA80B2E2
:1056800005B05DF804FB1FB50023ADF80C30012315
:10569000CDE9003303AA02230721D0F85C01FDF70E
:1056A0006EFE05B05DF804FB2DE9F04390F849313A
:1056B00085B00546894690461BB1894805B0BDE8CE
:1056C000F08303689B6898472846FFF7C7FF830667
:1056D00002D52846FFF7D7FF29F00040FAF79CFED5
:1056E0006FA3D3E90023FBF76BF9044630B1012126
:1056F000284605B0BDE8F043FEF7C6BB4846FAF7BA
:105700008BFE69A3D3E9002306460F46FAF724FD72
:10571000FBF7BCF920F00040FAF77EFE60A3D3E966
:105720000023FBF74DF9002840F0AB8060A3D3E9DC
:10573000002330463946FAF70FFDFBF7A7F920F0B2
:105740000040FAF769FE56A3D3E90023FBF738F9C6
:10575000002840F0988058A3D3E90023304639460A
:10576000FAF7FAFCFBF792F920F00040FAF754FE42
:105770004BA3D3E90023FBF723F9002840F08580F1
:105780004FA3D3E9002330463946FAF7E5FCFBF78F
:105790007DF920F00040FAF73FFE41A3D3E9002352
:1057A000FBF70EF9002872D147A3D3E90023304656
:1057B0003946FAF7D1FCFBF769F920F00040FAF717
:1057C0002BFE37A3D3E90023FBF7FAF8002860D1BA
:1057D0003FA3D3E9002330463946FAF7BDFCFBF777
:1057E00055F920F00040FAF717FE2DA3D3E9002366
:1057F000FBF7E6F800284ED13A494846FBF79AF9FC
:1058000020F00040FAF708FE25A3D3E90023FBF7B8
:10581000D7F8002841D130A3D3E9002330463946D8
:10582000FAF79AFCFBF732F920F00040FAF7F4FDA2
:105830001BA3D3E90023FBF7C3F800283FF43DAFD7
:10584000072340468DF80C30FBF726FAFAF7E4FD03
:10585000254B0022FAF762FFFBF7F8F8030C8DF8EE
:105860000D300123C5F88C81CDE9003340BAADF885
:105870000E000423D5F85C0103AA9721FDF77FFDF4
:105880001CE72346DDE70123DBE70223D9E70323F7
:10589000D7E70423D5E70523D3E70623D1E700BFE5
:1058A000FCA9F1D24D62503F9A9999999999F93F83
:1058B000333333333333FB3FCDCCCCCCCCCCFC3F78
:1058C0009A9999999999014033333333333303408B
:1058D0009A999999999905406666666666660A403E
:1058E00041FDFFFF0000404000402F4010B504463E
:1058F0000846C4F854114FF09841FBF725FAFAF71F
:105900008BFD064B0022FAF7DFFDFBF79FF80146FF
:105910002046BDE81040FEF724BD00BF0000A03FB8
:1059200073B500238DF807300DF10702012340F60F
:1059300089010446FEF753FC064610BB2046FEF7DD
:10594000C6FD01289DF807501ED11349D4F86801FF
:10595000FBF7F0F820F00040FAF75EFD0CA3D3E966
:105960000023FBF72DF878B105F0FB05D4F85C01B6
:105970008DF8075001230DF1070240F68901FDF76C
:10598000B6FB304602B070BD45F00405EEE700BF3F
:10599000FCA9F1D24D62503F0000FA4373B50023D9
:1059A0008DF807300E4601230DF1070240F6D801AD
:1059B0000546FEF714FC044678B99DF807307EB121
:1059C00043F01E038DF80730D5F85C0101230DF17B
:1059D000070240F6D801FDF78AFB204602B070BDF1
:1059E00023F01E0343F00803ECE773B590F864312D
:1059F000012B044604D06FF01306304602B070BD90
:105A0000FEF765FD01280546F5D1002603460DF198
:105A10000602D4F85C018DF8066040F60211FDF72D
:105A200066FB2B460DF1070240F6441120468DF827
:105A30000760FEF7D4FB06460028DED19DF807304C
:105A4000D4F85C0143F002038DF807300DF1070232
:105A50002B4640F64411FDF74AFBCEE703682DE9DB
:105A6000F7439B6804460E4615469847002840F0C9
:105A7000A8802046FEF72BFD01285BD194F8603109
:105A80009840FBF709F9D4F86811FBF711FAFAF717
:105A9000C3FC544B0022FAF717FDFAF7D7FF07466D
:105AA000FBF7FAF8FAF7B8FC4F4B0022FAF70CFDB7
:105AB0004E4B0022FAF732FEFAF7C8FF23680022A5
:105AC0000092D3F814800146022340F2722220464D
:105AD000C047002875D1D4F85C3118680368DB69C9
