:020000040800F2
:10000000000001200DFF00085DFF00085DFF0008F3
:100010005DFF00085DFF00085DFF000800000000B4
:100020000000000000000000000000005DFF00086C
:100030005DFF0008000000005DFF0008BFE400084D
:100040005DFF00085DFF00085DFF000859740008AF
:100050005DFF00085DFF0008B1E70008B7E7000892
:10006000BDE70008C3E70008C9E700085DFF000816
:100070005DFF00085DFF00085DFF00085DFF0008F0
:100080005DFF00085DFF00085DFF00085DFF0008E0
:10009000000000005DFF0008CFE700085DFF0008DA
:1000A00059DF00085DFF00086DDF000871DF000800
:1000B00085DF000899DF00085D8600086986000872
:1000C00075860008818600085DFF00085DFF000856
:1000D0005DF3000875F3000891F300085DFF000868
:1000E0005DFF0008F7E700083D7400085DFF0008A9
:1000F0005DFF000800000000000000005DFF000838
:100100008D86000899860008796300085DFF000865
:100110005DFF00085DFF00085DFF00085DFF00084F
:100120005DFF00085DFF00085DFF00085DFF00083F
:080130005DFF00085DFF0008FF
:1001400010F8012B11F8013B012A28BF9A42F7D081
:10015000D01A7047034613F8012B002AFBD1181A56
:10016000013870470000000000000000000000009F
:1001700001F0FF01102A2BDB10F0070F08D010F858
:10018000013B013A8B422DD010F0070F42B3F6D15C
:10019000F0B441EA012141EA014122F007047FF075
:1001A00000070023F0E80256083C85EA010586EACC
:1001B000010685FA47F5A3FA87F586FA47F6A5FA08
:1001C00087F68EB9EED1F0BC01F0FF0102F0070214
:1001D00032B110F8013B013A83EA010313B1F8D1BF
:1001E0000020704701387047002D06BF35460338A0
:1001F000073815F0010F07D1013015F4807F02BFD9
:10020000013015F4C03F0130F0BC0138704700BF29
:1002100081F0004102E000BF83F0004330B54FEAB7
:1002200041044FEA430594EA050F08BF90EA020F24
:100230001FBF54EA000C55EA020C7FEA645C7FEAB7
:10024000655C00F0E2804FEA5454D4EB5555B8BFDA
:100250006D420CDD2C4480EA020281EA030382EA4B
:10026000000083EA010180EA020281EA0303362DDD
:1002700088BF30BD11F0004F4FEA01314FF4801CB0
:100280004CEA113102D0404261EB410113F0004FC2
:100290004FEA03334CEA133302D0524263EB430379
:1002A00094EA050F00F0A780A4F10104D5F1200E17
:1002B0000DDB02FA0EFC22FA05F2801841F1000172
:1002C00003FA0EF2801843FA05F359410EE0A5F146
:1002D00020050EF1200E012A03FA0EFC28BF4CF077
:1002E000020C43FA05F3C01851EBE37101F000452D
:1002F00007D54FF0000EDCF1000C7EEB00006EEB3A
:100300000101B1F5801F1BD3B1F5001F0CD34908C3
:100310005FEA30004FEA3C0C04F101044FEA44521A
:1003200012F5800F80F09A80BCF1004F08BF5FEAA1
:10033000500C50F1000041EB045141EA050130BD81
:100340005FEA4C0C404141EB0101013C28BFB1F593
:10035000801FE9D291F0000F04BF01460020B1FADE
:1003600081F308BF2033A3F10B03B3F120020CDAB1
:100370000C3208DD02F1140CC2F10C0201FA0CF08F
:1003800021FA02F10CE002F11402D8BFC2F1200CF4
:1003900001FA02F120FA0CFCDCBF41EA0C019040AA
:1003A000E41AA2BF01EB0451294330BD6FEA0404F3
:1003B0001F3C1CDA0C340EDC04F11404C4F12002DE
:1003C00020FA04F001FA02F340EA030021FA04F3F0
:1003D00045EA030130BDC4F10C04C4F1200220FA47
:1003E00002F001FA04F340EA0300294630BD21FA85
:1003F00004F0294630BD94F0000F83F4801306BF4B
:1004000081F480110134013D4EE77FEA645C18BF3E
:100410007FEA655C29D094EA050F08BF90EA020FD5
:1004200005D054EA000C04BF1946104630BD91EACD
:10043000030F1EBF0021002030BD5FEA545C05D1D0
:100440004000494128BF41F0004130BD14F580040F
:100450003CBF01F5801130BD01F0004545F0FE4183
:1004600041F470014FF0000030BD7FEA645C1ABFB8
:10047000194610467FEA655C1CBF0B46024650EAEF
:10048000013406BF52EA033591EA030F41F400211B
:1004900030BD00BF90F0000F04BF0021704730B5A1
:1004A0004FF4806404F132044FF000054FF0000176
:1004B00050E700BF90F0000F04BF0021704730B537
:1004C0004FF4806404F1320410F0004548BF40420C
:1004D0004FF000013EE700BF42004FEAE2014FEA61
:1004E00031014FEA02701FBF12F07F4393F07F4F3C
:1004F00081F06051704732F07F4208BF704793F03F
:100500007F4F04BF41F40021704730B54FF4607451
:1005100001F0004521F000411CE700BF50EA010254
:1005200008BF704730B54FF000050AE050EA0102FD
:1005300008BF704730B511F0004502D5404261EB6D
:1005400041014FF4806404F132045FEA915C3FF4AE
:10055000D8AE4FF003025FEADC0C18BF03325FEA4B
:10056000DC0C18BF033202EBDC02C2F1200300FAFC
:1005700003FC20FA02F001FA03FE40EA0E0021FA21
:1005800002F11444BDE600BF70B54FF0FF0C4CF40F
:10059000E06C1CEA11541DBF1CEA135594EA0C0FC1
:1005A00095EA0C0F00F0DEF82C4481EA030621EAFC
:1005B0004C5123EA4C5350EA013518BF52EA033537
:1005C00041F4801143F4801338D0A0FB02CE4FF0E9
:1005D0000005E1FB02E506F00042E0FB03E54FF019
:1005E0000006E1FB03569CF0000F18BF4EF0010E11
:1005F000A4F1FF04B6F5007F64F5407404D25FEA0D
:100600004E0E6D4146EB060642EAC62141EA5551BF
:100610004FEAC52040EA5E504FEACE2EB4F1FD0C01
:1006200088BFBCF5E06F1ED8BEF1004F08BF5FEA7F
:10063000500E50F1000041EB045170BD06F0004631
:1006400046EA010140EA020081EA0301B4EB5C04DE
:10065000C2BFD4EB0C0541EA045170BD41F48011D6
:100660004FF0000E013C00F3AB8014F1360FDEBFFB
:10067000002001F0004170BDC4F10004203C35DAD7
:100680000C341BDC04F11404C4F1200500FA05F35A
:1006900020FA04F001FA05F240EA020001F00042FB
:1006A00021F0004110EBD37021FA04F642EB060171
:1006B0005EEA430E08BF20EAD37070BDC4F10C049B
:1006C000C4F1200500FA04F320FA05F001FA04F25F
:1006D00040EA020001F0004110EBD37041F100014B
:1006E0005EEA430E08BF20EAD37070BDC4F1200556
:1006F00000FA05F24EEA020E20FA04F301FA05F2BE
:1007000043EA020321FA04F001F0004121FA04F265
:1007100020EA020000EBD3705EEA430E08BF20EA35
:10072000D37070BD94F0000F0FD101F0004640006F
:1007300041EB010111F4801F08BF013CF7D041EAF1
:10074000060195F0000F18BF704703F000465200F5
:1007500043EB030313F4801F08BF013DF7D043EAC6
:100760000603704794EA0C0F0CEA135518BF95EA7C
:100770000C0F0CD050EA410618BF52EA4306D1D103
:1007800081EA030101F000414FF0000070BD50EA22
:10079000410606BF1046194652EA430619D094EAAC
:1007A0000C0F02D150EA013613D195EA0C0F05D196
:1007B00052EA03361CBF104619460AD181EA0301EA
:1007C00001F0004141F0FE4141F470014FF00000A2
:1007D00070BD41F0FE4141F4780170BD70B54FF03D
:1007E000FF0C4CF4E06C1CEA11541DBF1CEA1355BD
:1007F00094EA0C0F95EA0C0F00F0A7F8A4EB05049F
:1008000081EA030E52EA03354FEA013100F0888095
:100810004FEA03334FF0805545EA131343EA12635E
:100820004FEA022245EA111545EA10654FEA002613
:100830000EF000419D4208BF964244F1FD0404F5CC
:10084000407402D25B084FEA3202B61A65EB030528
:100850005B084FEA32024FF480104FF4002CB6EBE5
:10086000020E75EB030E22BFB61A754640EA0C0065
:100870005B084FEA3202B6EB020E75EB030E22BFA5
:10088000B61A754640EA5C005B084FEA3202B6EBE6
:10089000020E75EB030E22BFB61A754640EA9C00A5
:1008A0005B084FEA3202B6EB020E75EB030E22BF75
:1008B000B61A754640EADC0055EA060E18D04FEA33
:1008C000051545EA16754FEA06164FEAC30343EAD3
:1008D00052734FEAC2025FEA1C1CC0D111F4801FA0
:1008E0000BD141EA00014FF000004FF0004CB6E799
:1008F00011F4801F04BF01430020B4F1FD0C88BF38
:10090000BCF5E06F3FF6AFAEB5EB030C04BFB6EB42
:10091000020C5FEA500C50F1000041EB045170BD35
:100920000EF0004E4EEA113114EB5C04C2BFD4EB62
:100930000C0541EA045170BD41F480114FF0000EE6
:10094000013C90E645EA060E8DE60CEA135594EA62
:100950000C0F08BF95EA0C0F3FF43BAF94EA0C0F65
:100960000AD150EA01347FF434AF95EA0C0F7FF4DA
:1009700025AF104619462CE795EA0C0F06D152EA2E
:1009800003353FF4FDAE1046194622E750EA410612
:1009900018BF52EA43067FF4C5AE50EA41047FF423
:1009A0000DAF52EA43057FF4EBAE12E74FF0FF3C88
:1009B00006E000BF4FF0010C02E000BF4FF0010C59
:1009C0004DF804CD4FEA410C7FEA6C5C4FEA430CD2
:1009D00018BF7FEA6C5C1BD001B050EA410C0CBF21
:1009E00052EA430C91EA030F02BF90EA020F002083
:1009F000704710F1000F91EA030F58BF994208BFEA
:100A000090422CBFD8176FEAE37040F001007047A6
:100A10004FEA410C7FEA6C5C02D150EA013C07D1FD
:100A20004FEA430C7FEA6C5CD6D152EA033CD3D048
:100A30005DF8040B704700BF8446104662468C4642
:100A40001946634600E000BF01B5FFF7B7FF002875
:100A500048BF10F1000F01BD4DF808EDFFF7F4FF9E
:100A60000CBF012000205DF808FB00BF4DF808ED29
:100A7000FFF7EAFF34BF012000205DF808FB00BF4C
:100A80004DF808EDFFF7E0FF94BF012000205DF86E
:100A900008FB00BF4DF808EDFFF7CEFF94BF012023
:100AA00000205DF808FB00BF4DF808EDFFF7C4FF1C
:100AB00034BF012000205DF808FB00BF4A0011D2BE
:100AC00012F5001211D20DD56FF47873B3EB6252A8
:100AD0000ED44FEAC12343F0004343EA505323FAB4
:100AE00002F070474FF00000704750EA013002D129
:100AF0004FF0FF3070474FF0000070474FEA41025F
:100B0000B2F1E04324BFB3F5001CDCF1FE5C0DD96B
:100B100001F0004C4FEAC0024CEA5070B2F1004FB5
:100B200040EB830008BF20F00100704711F0804FB8
:100B300021D113F13872BCBF01F00040704741F47D
:100B400080114FEA5252C2F11802C2F1200C10FA81
:100B50000CF320FA02F018BF40F001004FEAC12365
:100B60004FEAD32303FA0CFC40EA0C0023FA02F309
:100B70004FEA4303CCE77FEA625307D150EA0133DF
:100B80001EBF4FF0FE4040F44000704701F00040AF
:100B900040F0FE4040F40000704700BF80F000408D
:100BA00002E000BF81F0004142001FBF5FEA410345
:100BB00092EA030F7FEA226C7FEA236C6AD04FEA45
:100BC0001262D2EB1363C1BFD2184140484041408A
:100BD000B8BF5B42192B88BF704710F0004F40F43C
:100BE000000020F07F4018BF404211F0004F41F458
:100BF000000121F07F4118BF494292EA030F3FD024
:100C0000A2F1010241FA03FC10EB0C00C3F1200336
:100C100001FA03F100F0004302D5494260EB4000C5
:100C2000B0F5000F13D3B0F1807F06D340084FEA30
:100C3000310102F10102FE2A51D2B1F1004F40EB25
:100C4000C25008BF20F0010040EA0300704749008D
:100C500040EB0000013A28BFB0F5000FEDD2B0FA2A
:100C600080FCACF1080CB2EB0C0200FA0CF0AABF4D
:100C700000EBC25052421843BCBFD04018437047EB
:100C800092F0000F81F4000106BF80F400000132F1
:100C9000013BB5E74FEA41037FEA226C18BF7FEAC8
:100CA000236C21D092EA030F04D092F0000F08BF0A
:100CB0000846704790EA010F1CBF0020704712F0F1
:100CC0007F4F04D1400028BF40F00040704712F130
:100CD00000723CBF00F50000704700F0004343F095
:100CE000FE4040F4000070477FEA226216BF0846CB
:100CF0007FEA23630146420206BF5FEA412390EA8E
:100D0000010F40F4800070474FF0000304E000BF83
:100D100010F0004348BF40425FEA000C08BF704734
:100D200043F0964301464FF000001CE050EA0102F8
:100D300008BF70474FF000030AE000BF50EA01020D
:100D400008BF704711F0004302D5404261EB4101FA
:100D50005FEA010C02BF84460146002043F0B6431F
:100D600008BFA3F18053A3F50003BCFA8CF2083A44
:100D7000A3EBC25310DB01FA02FC634400FA02FC4D
:100D8000C2F12002BCF1004F20FA02F243EB020054
:100D900008BF20F00100704702F1200201FA02FCB6
:100DA000C2F1200250EA4C0021FA02F243EB0200A9
:100DB00008BF20EADC7070474FF0FF0C1CEAD052ED
:100DC0001EBF1CEAD15392EA0C0F93EA0C0F6FD0AE
:100DD0001A4480EA010C400218BF5FEA41211ED08C
:100DE0004FF0006343EA501043EA5111A0FB013178
:100DF0000CF00040B1F5000F3EBF490041EAD3714D
:100E00005B0040EA010062F17F02FD2A1DD8B3F1C8
:100E1000004F40EBC25008BF20F00100704790F037
:100E2000000F0CF0004C08BF49024CEA502040EA89
:100E300051207F3AC2BFD2F1FF0340EAC25070474F
:100E400040F400004FF00003013A5DDC12F1190F8D
:100E5000DCBF00F000407047C2F10002410021FAFF
:100E600002F1C2F1200200FA02FC5FEA310040F117
:100E7000000053EA4C0308BF20EADC70704792F090
:100E8000000F00F0004C02BF400010F4000F013AC8
:100E9000F9D040EA0C0093F0000F01F0004C02BFC3
:100EA000490011F4000F013BF9D041EA0C018FE732
:100EB0000CEAD15392EA0C0F18BF93EA0C0F0AD038
:100EC00030F0004C18BF31F0004CD8D180EA01005E
:100ED00000F00040704790F0000F17BF90F0004FF7
:100EE000084691F0000F91F0004F14D092EA0C0FD9
:100EF00001D142020FD193EA0C0F03D14B0218BF6C
:100F0000084608D180EA010000F0004040F0FE40B1
:100F100040F40000704740F0FE4040F4400070474D
:100F20004FF0FF0C1CEAD0521EBF1CEAD15392EACC
:100F30000C0F93EA0C0F69D0A2EB030280EA010CBC
:100F400049024FEA402037D04FF0805343EA111155
:100F500043EA10130CF000408B4238BF5B0042F1B3
:100F60007D024FF4000C8B4224BF5B1A40EA0C0058
:100F7000B3EB510F24BFA3EB510340EA5C00B3EB8A
:100F8000910F24BFA3EB910340EA9C00B3EBD10F78
:100F900024BFA3EBD10340EADC001B0118BF5FEACA
:100FA0001C1CE0D1FD2A3FF650AF8B4240EBC250F3
:100FB00008BF20F0010070470CF0004C4CEA5020B4
:100FC0007F32C2BFD2F1FF0340EAC250704740F403
:100FD00000004FF00003013A37E792F0000F00F0F5
:100FE000004C02BF400010F4000F013AF9D040EA73
:100FF0000C0093F0000F01F0004C02BF490011F407
:10100000000F013BF9D041EA0C0195E70CEAD153FE
:1010100092EA0C0F08D142027FF47DAF93EA0C0FE5
:101020007FF470AF084676E793EA0C0F04D14B02C9
:101030003FF44CAF08466EE730F0004C18BF31F07B
:10104000004CCAD130F000427FF45CAF31F0004375
:101050007FF43CAF5FE700BF4FF0FF3C06E000BF0E
:101060004FF0010C02E000BF4FF0010C4DF804CD31
:101070004FEA40024FEA41037FEA226C18BF7FEA41
:10108000236C11D001B052EA530C18BF90EA010F43
:1010900058BFB2EB030088BFC81738BF6FEAE170D2
:1010A00018BF40F0010070477FEA226C02D15FEA6E
:1010B000402C05D17FEA236CE4D15FEA412CE1D0DA
:1010C0005DF8040B704700BF844608466146FFE7A1
:1010D0000FB5FFF7C9FF002848BF10F1000F0FBD83
:1010E0004DF808EDFFF7F4FF0CBF012000205DF87C
:1010F00008FB00BF4DF808EDFFF7EAFF34BF012001
:1011000000205DF808FB00BF4DF808EDFFF7E0FF99
:1011100094BF012000205DF808FB00BF4DF808EDEA
:10112000FFF7D2FF94BF012000205DF808FB00BF4D
:101130004DF808EDFFF7C8FF34BF012000205DF82F
:1011400008FB00BF4FEA40024FEA41037FEA226CEE
:1011500002D15FEA402C08D17FEA236C02D15FEA1A
:10116000412C02D14FF0000070474FF00100704752
:101170004FEA4002B2F1FE4F0FD34FF09E03B3EBA4
:1011800012620DD94FEA002343F0004310F0004FE4
:1011900023FA02F018BF404270474FF0000070473A
:1011A00012F1610F01D1420205D110F0004008BFD9
:1011B0006FF0004070474FF00000704742000ED2C1
:1011C000B2F1FE4F0BD34FF09E03B3EB126209D482
:1011D0004FEA002343F0004323FA02F070474FF038
:1011E0000000704712F1610F01D1420202D14FF0AD
:1011F000FF3070474FF00000704700BF53B94AB945
:10120000002908BF00281CBF4FF0FF314FF0FF300E
:1012100000F00CB8ADF1080C6DE904CE10F0A0FDA3
:10122000DDF804E0DDE9022304B07047704700BF39
:1012300010B5054C237833B9044B13B10448AFF310
:1012400000800123237010BD340200200000000044
:101250006020010808B5034B1BB103490348AFF3F5
:10126000008008BD00000000380200206020010856
:1012700010B58AB0A0F26C7003930C9B069000240A
:10128000029301390D9B099401A8CDE90744CDE9EA
:10129000042101930FF086FA0AB010BD10B520F0BA
:1012A000004410492046FFF739FF90B90E49204607
:1012B000FFF734FF78B90D492046FFF72FFF60B9DB
:1012C0000B492046FFF72AFF48B90023094A13605B
:1012D00010BD094BFAE7094BF8E7094BF6E7094B54
:1012E000F4E700BF000048420000A0410000204198
:1012F0000000A04050020020CDCCCC3D0AD7A33D39
:101300008FC2753D0AD7A33C10B5062286B04FF4B4
:10131000E13120480EF028FA32200EF0B3FFC02150
:101320001D480023012206F0A4FD0C200EF02AFE29
:1013300019491A4806F03AF918B9194915480EF032
:10134000A1FA184A1849194801F036FD00230593FF
:10135000174B049308230393164B174993F9003056
:10136000029312220523CDE900321048134A0723C5
:1013700001F0F0F8044658B1114906480EF068FA39
:1013800004480A22214606B0BDE810400EF0BEBA5D
:1013900006B010BDEC0800207006002014040020E8
:1013A000F820010808240108682401085C020020D4
:1013B0009A99D93F0C000020000059440000FA42DD
:1013C0001B21010813B506221D481E4C4FF4E131C4
:1013D0000EF0CAF91C491A480EF054FA1B4807F0DF
:1013E00079F92068012105F0EDFA194B1B789BB1C2
:1013F00000234FF47A72CDE900230D2120681922D1
:1014000005F098F920681C211923052205F00EFA31
:101410002068032105F0F4F9FFF776FF0D4908482D
:101420000EF016FA0C4B064819680A220EF06CFAF8
:101430000A49034802B0BDE810400EF023BA00BFCD
:10144000EC08002058020020352101087807002010
:10145000100000204D2101080C0000206C21010823
:1014600010B50024E3B2043B0C2B08D8DFE803F0EE
:101470000B0B070707070B070707070B0D000421D6
:1014800020460EF0B3FD0134ECE71024132C05D0F8
:101490001F2C05D0042120460EF0A8FD0134F5E7ED
:1014A00010BD000038B51048104D06F050F8482027
:1014B0000CF01AFE044601F0E9F821460C480D4CE8
:1014C00001F03EF8296811F001010AD14FF4004300
:1014D00080222046617084F8261005F00AF8012366
:1014E0002B60054B1C6038BD140400203004002024
:1014F0005C0200203404002058020020014806F05D
:101500002CB800BF14040020264B70B5196805469E
:10151000FFF748FB0646FFF7C1FE234B1C6800217E
:101520002046FFF705FE00283AD0314604F100407E
:10153000FFF742FC10F0F0FB1C4C06462068FFF75A
:10154000E7FB3146FFF730FBFFF712FE184B196837
:10155000814205DC174B1B6898420146A8BF19461B
:101560002160154849B200F04BFF98B9134914485F
:101570000EF06EF90222294611480EF06FFA114959
:101580000F480EF065F921680D48BDE870400A2249
:101590000EF0BCB9BDE870400B4909480EF072B9B5
:1015A00070BD00BF08000020500200200C00002089
:1015B00004000020000000205C02002071210108CE
:1015C000EC0800207D2101089621010808B5124889
:1015D0000EF0B0F80121114801F04BFB0A200EF08B
:1015E00051FEFFF73DFF0A200EF04CFE0A480EF0B8
:1015F00092F832200EF046FE09484EF6602107F0C0
:1016000075F9084A136801331360074B00221A70FA
:10161000BDE80840FFF778BEEC0800205C0200201F
:101620007807002054020020100000200000000075
:101630002DE9F047C84BC94FB3F8AA60DFF8208303
:101640009CB00421C5200EF0D1FC10240025C5203B
:101650000EF0B6FCC34AD8F800307968B3FBF2F359
:101660006422054453437A68521A9342FBDC013CDE
:10167000EDD1DFF8E892DFF8ECA22D091027C920A0
:101680000EF09EFC6422D9F80410D8F80030B3FBA9
:10169000FAF304445343D9F80420521A9342FADC73
:1016A000013FECD12309653B9BB240F63A7293426D
:1016B000C4F30F140CD9AC49AC480EF0D9F8AC49BE
:1016C000AA480EF0C1F8A9480A2221460EF01EF9D8
:1016D0003046FEF7EFFE9CA3D3E90023FEF754FF4C
:1016E000064620460F46FEF7E5FE02460B4630460C
:1016F0003946FFF773F8FFF701FAFEF7EDFE0646ED
:10170000A8B20F46FEF7D6FE91A3D3E90023FFF758
:1017100065F802460B4630463946FEF735FFFFF7BF
:10172000EDF9AA238DF81430924BD3F890358DF84B
:1017300018301A0E8DF815201A0C8DF816201A0A7A
:1017400004468DF817200AA913AA8B4805F096FFC6
:101750008A491898FFF730FBFFF730FD88498DF86C
:101760001A00C0F307230F988DF81930FFF724FBF8
:10177000FFF724FDC0F307238DF81C0020468DF8E9
:101780001B30FFF71BFD7F4C8DF81E00C0F30723B5
:1017900020688DF81D3005F012F80546206805F028
:1017A00008F80646206804F0FEFF0021074620687E
:1017B00004F095FF8046206804F08BFF8146206886
:1017C00004F081FF4346CDE900903A46314605F5E5
:1017D000FA60FFF74DFD030E8DF81F30030C8DF8F6
:1017E00020300022030A8DF821308DF8220005A94F
:1017F000134611F8010B013203440F2ADBB2F8D172
:101800008DF82330FF238DF8243000265E49574899
:10181000771C0EF01DF80A22394654480EF074F871
:101820005A4952480EF02EF859480023112205A9B2
:1018300001F010FD0446002840F0D28055494B4885
:101840000EF020F8524801F0A7F80EF017FD0394AF
:101850008046CDF80F400EF011FDA0EB0800C72820
:1018600001D900245EE04A48012101F0DAFE002897
:1018700000F0A3804648012101F0D3FE072804466A
:1018800040F0A980024603A9414801F07FFE0546C9
:10189000002840F09680404934480DF0D9FF03AD50
:1018A00015F8013B0F2B03D83C4930480DF0D0FF11
:1018B00015F8011C2D4810220EF03DF838492B4830
:1018C0000DF0C6FF013CEBD128480DF0C9FF9DF893
:1018D0000C30552B6AD19DF80D209DF815309A4299
:1018E00064D19DF80E209DF816309A425ED19DF885
:1018F0000F209DF817309A4258D19DF810209DF87E
:1019000018309A4252D1274918480DF0BBFFBDF854
:101910001100C0BAFFF7FCF91949FFF701FBFFF707
:10192000F3FD01241A4801F0E9F92CB9032E61D125
:101930001D490E480DF0A6FFFFF748FE1CB0BDE89C
:10194000F08700BFAFF300800000000000C8A9408E
:101950000000000000FEAF400075FF1F001000E017
:10196000A000002040420F00AE210108EC0800203A
:10197000D62101080070FF1F140400200000C84297
:101980000000204158020020EA2101080422010839
:101990005C020020092201082A2201080124010812
:1019A0009C2201083D22010804230108164917481A
:1019B0000DF068FF164800F0EFFF01200EF062FC0A
:1019C00049E7144911480DF043FF0A2229460F4800
:1019D0000DF09CFFEEE710490C480DF039FFE9E7E8
:1019E0000E490A480DF034FF0A22214607480DF03F
:1019F0008DFF9BE70A4905480DF044FF00200EF0DB
:101A000041FC3E4602E700BF60220108EC080020CE
:101A10005C020020852201089E220108E0220108C4
:101A2000332301087047704770470846704700002D
:101A300030B5C0E90223039B044D0361049B43615D
:101A4000059B8361C0E9005130BD00BF84240108BB
:101A50002DE9F041104D2F4604468C4690469E4697
:101A6000061D0FCF0FC697E80700069B86E8070004
:101A70001C35A362079BE3620FCD04F13006C4E975
:101A8000088E0FC62B683360002363642046C4F8B9
:101A900000C0BDE8F08100BF7820010810B5044601
:101AA00000680368DB6B98472068216A03688268D6
:101AB0001B6898472068216A036802695B68BDE873
:101AC00010401847006803681B6C18472DE9F74F52
:101AD000057CDDF834909B460C9B0193437CED081C
:101AE00005EBD3054D4404462846884692460CF043
:101AF000FDFA064628460CF0F9FA0746207C08282D
:101B00005FFA88F35FFA8AF195BF304630460B439F
:101B100043EA1A238CBF00F8023B00F8013B6389BB
:101B200088BF717043454A4631D159460FF024FBB6
:101B300020680368DB6A98472068216A0368C268E6
:101B40005B689847206803682A46D3F830B031466E
:101B50003B46D8472068216A036802695B6898475A
:101B6000206803685B6B98472389434506D1217C35
:101B700001984A4607EBD1010FF0FEFA30460CF00F
:101B8000B7FA384603B0BDE8F04F0CF0B1BAA189FE
:101B90000EF008FDCCE72DE9F84FDDF830809DF818
:101BA00034B004460E46174602EB080A994613B9AC
:101BB000837C0AEBD30A50460CF098FA711E054656
:101BC000C319984258D1B9F1000F5AD00A99424628
:101BD0000FF0D2FABBF1000F07D0E26A20680132A1
:101BE000036855D15B693221984750460CF07EFA64
:101BF000064620680368DB6A98472068216A036804
:101C0000C2685B689847206803681B6B52469C4615
:101C100029463346E0472068216A036802695B6809
:101C20009847206803685B6B9847BBF1000F07D0AB
:101C3000E26A20680132036848D15B690121984754
:101C40006369002B63D0B8F1000F62D0E27CB05C16
:101C500098478246B9F1000F07D1A37C0B9807EB98
:101C6000D301424631440FF087FA28460CF040FA7F
:101C700030460CF03DFA26E011F8012F00F8012B58
:101C80009FE7A27CA18908EBD2020EF08BFCA1E7B2
:101C9000DB69984706462068E16A03689B689847B5
:101CA0000028A2D020680368DB6C9847206803688E
:101CB000DB699847E369801B9842ECD328460CF017
:101CC00017FA6FF4307A5046BDE8F88F9B6901210E
:101CD000984720680368DB69984782462068E16A74
:101CE00003689B6898470028AAD020680368DB6CCB
:101CF000984720680368DB699847E369A0EB0A000E
:101D00009842EBD328460CF0F3F93046D7E79A46D1
:101D1000A0E7C2469EE72DE9F0431E46037987B04F
:101D200005468C46174643B9CDE900620A4601894B
:101D3000FFF7CCFE07B0BDE8F08390F9114090F8B2
:101D400011E0002CB8BF0734C4F3C704601E40B2D2
:101D500004AA4FEAC00803461146002B15DA2A7C74
:101D60000130B8BF0024D2080C44501E40B2431CBE
:101D700016D10123CDE9027300230196009302EBF3
:101D8000DE022846FFF707FFD4E7B5F80890013BCD
:101D900049FA08F902F8019B5BB2A8F10808DCE7F0
:101DA000C3002CFA03F304F8013B0138DEE7F0B579
:101DB00089B000238DF81730037904460A465BB9D1
:101DC000012101910DF1170100910189FFF77EFEBC
:101DD0009DF8170009B0F0BD90F91130457C002B3B
:101DE000B8BF0733C3F3C703581E40B206AF4FEA6C
:101DF000C00C06463946002E17DA267C0130B8BFE3
:101E00000023F6080B44701E40B2471C18D1012372
:101E1000CDE902330DF1170301930023009306EB84
:101E2000D5022046FFF7B7FED2E7B4F808E0013E3E
:101E30004EFA0CFE07F801EB76B2ACF1080CDAE7CB
:101E4000C70022FA07F703F8017B0138DCE72DE928
:101E5000F0431F46037987B005468C4616464BB9BA
:101E6000CDE9003713460A464189FFF72FFE07B038
:101E7000BDE8F08390F9114090F811E0002CB8BF54
:101E80000734C4F3C704601E40B204AA4FEAC00876
:101E900003461146002B15DA2A7C0130B8BF002416
:101EA000D2080C44501E40B2431C16D1012300201E
:101EB000CDE90060CDE9027302EBDE022846FFF7B0
:101EC0006AFED4E7B5F80A90013B49FA08F902F82E
:101ED000019B5BB2A8F10808DCE7C3002CFA03F30E
:101EE00004F8013B0138DEE7F0B5037989B0044618
:101EF0000D468DF8172053B90122CDE900320A466C
:101F00000DF117034189FFF7E1FD09B0F0BD90F92C
:101F10001130467C002BB8BF0733C3F3C703581EEC
:101F200040B206AF4FEAC00C02463946002A17DA23
:101F3000227C0130B8BF0023D2080B44501E40B2AF
:101F4000471C18D10020012301900DF117000090CB
:101F5000CDE9023302EBD6022046FFF71CFED4E7A0
:101F6000B4F80AE0013A4EFA0CFE07F801EB52B25F
:101F7000ACF1080CDAE7C70025FA07F703F8017B94
:101F80000138DCE72DE9F0479DF820A09DF8287086
:101F90009DF82C901C4643EA0A03072B05460E4683
:101FA000904641D854453FD3FFF701FFCAF1080AD4
:101FB000FF22631C02FA03F342FA0AF21343DB43E3
:101FC000DBB280EA0802134205D1B9F1000F02D159
:101FD0000020BDE8F08720EA030403EA08031C435D
:101FE000E4B2224631462846FFF77EFF28680368A0
:101FF0001B6A98479DF824804FF47A73814618FB3A
:1020000003F8286803681B6A9847A0EB0903434557
:1020100002D36FF00F00DCE731462846FFF7C7FE1A
:1020200060400742EDD1D3E76FF00A00D1E77FB5FA
:102030009DF824600396089E9DF82850CDE901364E
:10204000002300930446FFF7A6FD38B935B1A36914
:1020500023B1204604B0BDE87040184704B070BDFD
:10206000F0B590F91140477C002CB8BF0734E4105C
:10207000013C87B064B2E60005AD002C0DDA9DF896
:10208000341002919DF83010CDE90031134605A9B6
:10209000FA08FFF7CCFF07B0F0BD41FA06FC013C9F
:1020A00005F801CB64B2083EE7E77FB59DF82460F0
:1020B0000396089E02960026CDE9003601239DF87E
:1020C00028500446FFF767FD38B935B1A36923B13D
:1020D000204604B0BDE87040184704B070BDF0B5AC
:1020E00090F91140477C002CB8BF0734E410013C44
:1020F00087B064B2E60005AD002C0DDA9DF834100F
:1021000002919DF83010CDE90031134605A9FA0877
:10211000FFF7CBFF07B0F0BD41FA06FC013C05F824
:1021200001CB64B2083EE7E730B587B000238DF8F5
:10213000133090F91130427C002BB8BF0733DB100D
:10214000013B5BB2044605A9D800002B17DA012336
:10215000CDE902330DF11303019300230093D2085C
:1021600005A92046FFF717FD054628B963691BB18D
:102170009DF813009847E080284607B030BDE589F8
:10218000013B054101F8015B5BB20838DDE770B542
:102190000B46054601F11404303053F8046B40F847
:1021A000046BA342F9D16A640E1F01F11004286880
:1021B00056F8041F036882681B689847A642F6D148
:1021C00070BD406C18B970478B4204D0183003784A
:1021D000002BF9D118467047F8B50546FFF7F1FF17
:1021E00088B1041D05F12C0605F1400756F8041FBF
:1021F000002904DB2868226803685B689847BE42B0
:1022000004F10404F2D1F8BD0648074B074A1B68E5
:10221000B3FBF2F310B544684B434268121B934280
:10222000FBDC10BD001000E0A000002040420F00C9
:10223000CAB21A2A08460AD801F4E0630E4951F8D6
:1022400022201343013308BF4FF0FF30704701F0E5
:10225000C003C02B0CD1C72A0AD8084B01F03F029B
:1022600053F82210044A00F4E06352F82120E8E712
:102270004FF0FF30704700BFBC2F01089C2F0108B2
:10228000C06903F037BEC06903F066BEF8B5074603
:102290000C465D1E8E18B44200D1F8BD14F8011B27
:1022A000F869002203F05AFE05F8010FF3E70DF07C
:1022B00095BD4B1C084603D00021C0B20DF0BEBC3A
:1022C0007047084611461A46431C02D0C0B20DF0B2
:1022D00039BC7047C06903F03EBED0E90812C0693E
:1022E00003F018BE084611461A46431C01D00DF0F3
:1022F0005DBF002070470DF0C3BF0DF0BFBF0846A3
:102300000DF0C0BF4B1C084601D00DF035BD704725
:102310001FB5084611461A46431C13D00024CDE9C8
:102320000044CDE9024421B1074B0393074B0091D0
:10233000029369460DF0C4FC029B1BB1032269465F
:102340006846984704B010BDB723000897230008DB
:102350004B1C084601D00DF0EDBE0020704708462A
:10236000431C114601D00DF0ABBE70470846431C1C
:10237000114601D00DF03ABE704790F8282012B1F6
:1023800003689B6A1847704790F8282012B10368C9
:102390009B6B18477047012A02D1016000207047EB
:1023A000022A05D0032AF9D0002AF7D10260F5E706
:1023B0000B680360F2E703681847000070B586B049
:1023C00004AD85E80C0004230322CDE9013201228B
:1023D00000230E46009219460446FFF729FB95E8B4
:1023E0000300064B236004F12003E66183E8030049
:1023F0000023204684F8283006B070BDE024010890
:102400002DE9F04385B00F464FF0000801230DF190
:102410000F0240F6E70106468DF80F8000F08FFDB1
:10242000044600284ED133683046D3F8C43098476C
:1024300004218146FFF7C5FE032105464846FFF704
:10244000C0FE002842D117F1090F52DA6FF00C04D8
:1024500038E00E2FFBB20EDD0933DBB21F2BF5D8AF
:1024600001250723224600950421304600F048FD4F
:10247000042304460DE01133DBB21F2BE6D8012202
:10248000234600920421304600F03AFD45460446BA
:10249000032386F85831ACB92946304602F02EF9AC
:1024A000044678B90422F9B2304601F07FF90446B7
:1024B00040B901230DF10F0240F6E701304600F06C
:1024C00037FD0446204605B0BDE8F083002DC0D19D
:1024D0000E2FBBDC07F11103DBB21F2BB6D8012294
:1024E000234600920421304600F00AFD03230446EF
:1024F000CFE7002DAAD007F10903AEE710B50446D7
:10250000034803F090FF2368BDE81040184700BF60
:10251000C0050020014803F06CBF00BFC0050020CB
:10252000012A02D1016000207047022A05D0032A47
:10253000F9D0002AF7D10260F5E70B680360F2E7F3
:1025400010B5044600F002F9014B2360204610BD8F
:102550003C250108F0B587B004469DF844E09DF89D
:1025600030509DF834609DF93870BDF83CC0CDF80E
:1025700014E0DDF840E0CDF810E0CDE9027CCDE9D3
:10258000005600F0F3F8014628B9204607B0BDE830
:10259000F04000F015BC07B0F0BD00001FB50023EF
:1025A000CDE90013084B03930848094B0293694691
:1025B00003F0E8FE029B1BB1032269466846984778
:1025C00005B05DF804FB00BFFD240008C005002035
:1025D00021250008FFF7E2BF10B500F038FA0446E5
:1025E000054803F023FF044803F014FF10B102482C
:1025F00003F016FF204610BDC005002008B5A1F16C
:102600001B030846032B16D8DFE803F00A02061165
:102610000B4803F043FF08BD094803F00AFFFAE73F
:10262000074803F01DFF80F00100C0B2F3E7044843
:1026300003F02DFFF7E7BDE808400DF07BBD00BFBC
:10264000C00500200846A0F11B03032B114601D949
:102650000DF0CCBC7047000008461D28114604D878
:102660001B2810D809D00DF02BBD1E28FBD1B2FAC3
:1026700082F10548490903F0FDBEB2FA82F1024831
:10268000490903F0DFBE7047C005002037B5044696
:102690002C200BF029FD0A4B0A4905460CCBFFF70D
:1026A0008DFE094B2B601C221E23CDE900322946EA
:1026B0001D231B222046FFF7CBF9204603B030BD77
:1026C00064260108C0050020102601084AB1162919
:1026D0000B466FF00800A8BF16238342B8BF03461D
:1026E00013700931C9B21F298CBF6FF00C00002094
:1026F00070477FB503680022DB6C04460D4698479F
:1027000008BB8DF80F0001230DF10F0240F6E70121
:10271000204600F014FCB0B90126024600960723BB
:102720000421204600F0ECFB68B90422E9B22046FF
:1027300001F03CF838B933460DF10F0240F6E701DD
:10274000204600F0F5FB04B070BD000010B5044653
:1027500000F0E0F9034B2360034BC4F84C312046F2
:1027600010BD00BF74260108652301082DE9F3415F
:1027700098469DF8343001930C9B00930E46174603
:10278000BDF82C309DF824209DF820109DF928508C
:10279000044602F083FCE0B94146204601F0C6F849
:1027A000B8B93946204601F053F890B9236831464C
:1027B0001B6B2046984760B90121204601F09EFF1F
:1027C00038B923689B6C2946204602B0BDE8F04129
:1027D000184702B0BDE8F081F0B585B00E469DF80F
:1027E0003870029711460D9F01971A46BDF8303098
:1027F00000930A9B9DF92C50044602F0A9FC90B965
:10280000236831461B6B2046984760B9012120465A
:1028100001F074FF38B923689B6C2946204605B047
:10282000BDE8F040184705B0F0BD73B50E4611463F
:102830001A469DF824300193089B00939DF81830A8
:102840009DF91C50044602F0FBFC90B92368314608
:102850001B6B2046984760B90121204601F04EFFCE
:1028600038B923689B6C2946204602B0BDE8704009
:10287000184702B070BD000001297FB507D00229BA
:1028800028D0C1B16FF0130007B05DF804FB00233E
:102890000593174B04934FF0080C0A23CDE9023C33
:1028A0004FF0120E0723CDE9003E124A12490923C8
:1028B000FFF75CFFE8E70E4B0491039310210A2316
:1028C000CDE901310D4B00930D4A0E4B0A49FFF73C
:1028D00083FFD9E700230393054B02930A220123C8
:1028E000CDE9003204490622FFF79FFFCCE700BF85
:1028F000CDCCCC3F0000FA420000D94333331C4317
:102900009A9999400000A04070B50C4605461449BC
:1029100020461646FEF702FCF0B112492046FEF7AB
:10292000F3FBC8B12EB121462846BDE8704001F046
:102930008DBED5F854112046FEF734F90A4920F02F
:102940000040FEF7EBFB0028EDD02146284600F0C2
:1029500028FC0028E7D070BD6FF00B00FBE700BF3C
:1029600000001643000070440000A0410022FFF761
:10297000CBBF0000074B30B505460FCB85B08DE8C7
:102980000F002B686946D3F890302846984705B069
:1029900030BD00BFA820010813B5036800220092D3
:1029A0005C6940F2722202236FF07F41A04702B0BF
:1029B00010BD0000074B30B505460FCB85B08DE844
:1029C0000F002B686946D3F884302846984705B035
:1029D00030BD00BFA820010808B50846FDF75AFD24
:1029E000034B0022FDF7FAFEFEF768F808BD00BFB2
:1029F00000402F40036889B2D3F8C8301847D0F898
:102A00005C01704700F00E03062B0BD0082B0CD096
:102A10000A2B0CD00138C0B2FD288CBF6FF001002A
:102A2000002070476FF430707047024870470248CA
:102A3000704700BF3EFDFFFF3DFDFFFF08B5D0F82A
:102A40005C010221FFF7C8FB4FF0FF3008BD1FB546
:102A50000123CDE9003349BA0223ADF80C1003AAD3
:102A60001946D0F85C01FFF73AFB05B05DF804FBAE
:102A70001FB50023ADF80C300123CDE9003303AAC4
:102A800002231221D0F85C01FFF7EAFABDF80C002E
:102A900040BA80B205B05DF804FBD0F85C3110B5E7
:102AA0000446186803689B689847C1B22046BDE891
:102AB000104003F03AB8036810B5D3F8C83044F2B8
:102AC000FF310446984728B9236820469B68BDE833
:102AD0001040184710BD036810B5D3F88430044681
:102AE000984730B110BDD4F85C3118680368DB6CCE
:102AF0009847D4F85C311868596A02689268904720
:102B00000028F0D023682046D3F88830BDE8104074
:102B10001847000038B5FF2204460D462E4902F042
:102B2000C9FF0022C4F85421C4F86821C4F88421E4
:102B3000C4F88821294AC4F89821294A294B1069E8
:102B400023600321002384F858110121C4E95C3378
:102B5000C4E96933C4E96B33C4F84C3184F85031AB
:102B6000C4F8603184F86431A4F8663184F86C11DB
:102B7000C4F87831A4F87C3184F87E31A4F880312F
:102B8000C4F88C3184F89031C4F89431C4F89C01B5
:102B900084F8A031A4F8A231C4F8B431C4F85C516F
:102BA000022284F8493184F84A310423C4E902231B
:102BB000616010230821C4E9041320204023C4E9E4
:102BC000060380254FF48073C4E908534FF4007363
:102BD000A362204638BD00BF0024743F00010603F5
:102BE000A820010848270108D0F85C3170B50446D8
:102BF000186802680D461668996A8268B047D4F86A
:102C00005C311868996A02685668C268B047D4F89F
:102C10005C311868036801215B699847D4F85C311E
:102C20001868996A026856680269B047F5B1D4F825
:102C30005C3118680368DB699847064623682046BC
:102C40009B689847054688B1D4F85C3118680368DA
:102C5000DB699847801BB0F57A7F08D2D4F85C31E5
:102C6000186803680A215B699847E7E7002528464A
:102C700070BD30B5044685B0D0F85C010D46012129
:102C8000FFF7AAFA0023CDE900330DF10F02D4F8C3
:102C90005C01AD00012384218DF80F50FFF71FFA6E
:102CA000D4F85C3105461868036801215B699847D0
:102CB000284605B030BD0121FFF7DBBF7FB50446D4
:102CC0000D461646D0F85C010121FFF785FA46B1A2
:102CD0000023CDE900331A46D4F85C011946FFF70A
:102CE000FEF90123CDE9003303AAD4F85C018DF885
:102CF0000C508021FFF7F3F904B070BD90F84A1131
:102D00000122FFF7DBBFD0F85C312DE9F0411D68EF
:102D10002A680446D768126D0E462846596A9047BD
:102D2000D4F85C311B68014632462846BC465B69D4
:102D3000BDE8F0416047FFF7E6BFD0F85C3170B501
:102D40001C68596A226820461569126D90472B4607
:102D500001462046BDE870401847FFF7EEBF00006F
:102D600037B50C46054600212046FEF7D7F9D8B105
:102D70000F492046FEF7C8F9B0B12046FDF7ACFB7D
:102D80000C4B0022FDF72AFDFDF798FE01238DF87C
:102D900007000DF10702D5F85C0140F6E701FFF7E7
:102DA00056F8002003B030BD6FF01000FAE700BF06
:102DB00000000C4300000440D0F85C01FFF7E7B9C5
:102DC0001FB50123CDE900338DF80F100DF10F026F
:102DD0009D21D0F85C01FFF782F905B05DF804FB96
:102DE0001FB50B0C8DF80C300B0A8DF80D3001233C
:102DF000CDE900338DF80E10032303AA8321D0F808
:102E00005C01FFF76CF905B05DF804FB1FB50B0C16
:102E10008DF80C300B0A8DF80D3000220123CDE91E
:102E200000328DF80E10032303AA8221D0F85C0132
:102E3000FFF755F905B05DF804FB00002DE9F043FC
:102E40001D462D4B87B0044618689B88ADF80C30A2
:102E500094F860319DF838700290062B0E4690462B
:102E600045D8072384F8603194F860310F981833FF
:102E70006B4413F8179CFDF747FF2049FEF750F805
:102E8000FEF79CF9FF2E08BF0126B8F1FF0F18BF0F
:102E9000C146FF2D08BF0A258DF812500125CDE946
:102EA0000055030CFF2F8DF814304FEA102308BF94
:102EB00000278DF815308DF816000723D4F85C0133
:102EC0008DF8106004AA88218DF811908DF8137088
:102ED000FFF705F940B9CDE9005503460246C52183
:102EE000D4F85C01FFF7FBF807B0BDE8F0830C2BCA
:102EF000BAD90C23B6E700BF6C23010800007A4161
:102F00001FB58DF80D309DF818308DF80F30012366
:102F1000CDE900338DF80C108DF80E20042303AAA0
:102F20009521D0F85C01FFF7DAF805B05DF804FBF5
:102F300008B5D0F85C01FEF78AFF002008BD10B587
:102F4000044610461A460346D4F85C01FEF7E3FE39
:102F5000D4F85C01BDE81040FFF7E6B82DE9F04178
:102F6000002486B0FF270226CDE90274CDE9004691
:102F700005462346224640F6E201D0F85C01FFF701
:102F800001F8CDE90274CDE900462346224640F619
:102F9000E501D5F85C01FEF7F5FF6FF07F412846AB
:102FA000FFF734FFD5F85C31186803680A215B69C4
:102FB00098472746264601230DF1170240F61901CE
:102FC00028468DF81760FFF7BAFF9DF8170000F04C
:102FD0000100A04001343843082CC7B2EBD12B6864
:102FE00002244FF0FF089B6828469847CDE9014826
:102FF00003960096D5F85C010023012240F6E20119
:10300000FEF7C0FFCDE90286CDE900640023D5F8C4
:103010005C01012240F6E501FEF7B4FF384606B038
:10302000BDE8F08110B586B00E248DF8153001236F
:10303000CDE9013300920B46022205A9D0F85C01CC
:103040008DF81440FFF731F806B010BD10B586B00A
:103050001E248DF815300123CDE9013300920B4673
:10306000022205A9D0F85C018DF81440FEF7DFFFBD
:1030700006B010BD1FB55BBAADF80C30BDF8183006
:103080005BBAADF80E300123CDE9003349BA08230D
:1030900052BAADF80810ADF80A2019460DEB03023C
:1030A000D0F85C01FFF71BF805B05DF804FB07B52D
:1030B00000238AB200931146FFF7DCFF03B05DF8EE
:1030C00004FB1FB50123CDE9003309BA03910423A2
:1030D00003AA8621D0F85C01FFF701F805B05DF87E
:1030E00004FB30B50D4685B090F858110446D0F871
:1030F0005C01FFF771F86DB900238DF80C300123E6
:10310000CDE9003303AAD4F85C01D121FEF7E7FF33
:1031100005B030BD29462046FFF7D3FF0028EBD08D
:10312000F6E707B50123CDE900330A4602239821CB
:10313000D0F85C01FEF7D3FF03B05DF804FB73B574
:10314000054608464FF07E511646FDF72BFD4FF021
:103150007A51FDF731FE0EF099FDFEF72FF84FF092
:103160007E51C4B23046FDF71FFD4FF07A51FDF796
:1031700023FE0EF047FDFEF721F8E107C3B25CBF66
:1031800004F1FF34E4B2DA075CBF0133DBB201A91A
:1031900028468DF804408DF80530FFF7C2FF02B0D5
:1031A00070BD73B5002305460846ADF804300C46E3
:1031B000FDF7DEFFA0F286331A2B21D9A0F25F3390
:1031C000072B28D9A0F20B33082B27D9A0F5EB73D6
:1031D000282B26D9A0F5D7730A2B25D94FF081418A
:1031E0002046FDF7E1FC4FF0814106462046FDF701
:1031F000D9FC324601462846FFF7A1FF02B070BD58
:10320000E122E92301A928468DF804208DF8053034
:10321000FFF787FFF2E7D722DB23F3E7C122C523BD
:10322000F0E775228123EDE76B226F23EAE71FB5F4
:10323000FF238DF80F300123CDE900330DF10F028C
:103240001121D0F85C01FEF70BFF9DF80F0005B0CF
:103250005DF804FB2DE9F047984603689B68044637
:103260000F4616469847002838D1FF2E00F282807C
:1032700023683146DB6E2046984723680546D3F81D
:103280001C903246434639462046C84730BB20464C
:103290004FF47A7305EB8505B5FBF3F5FFF7C7FF30
:1032A000D4F85C31804618680368DB6998470535B7
:1032B0000746D4F85C3118680368DB6C9847D4F88B
:1032C0005C3118680368DB699847C01B854207D2E8
:1032D000236820461B6A98476FF00400BDE8F0871A
:1032E000D4F85C311868596A0268926890470028DF
:1032F000DFD0B8F1030F14D1236820465B6F9847E5
:10330000C3070ED4D4F8B411204601F00F0102F027
:103310000BFB236844F2FF31D3F8C83020469847AE
:10332000C7E7D4F85C3118680368DB69984705463D
:103330003046FDF7AFF8114B0022FDF725F9804626
:10334000E81B8946FDF7E0FCFDF7C6F80C4B0022B0
:10335000FDF744FA0B46024649464046FDF73EFA61
:10336000FDF7CCFB2368C4F888011B6A2046BDE842
:10337000F04718476FF00300B0E700BF000020409F
:1033800000408F40F7B505460E46FFF750FF012875
:1033900033D12B6828469B689847044650BBD5F824
:1033A0005C010221FEF718FFB168284602F0AAFB73
:1033B000F1680746284602F0A5FB0094234682B236
:1033C000B9B22846FFF756FE044698B92B6844F276
:1033D000FF31D3F8C83028469847044650B973687F
:1033E0000193F3780093B378727831782846FFF729
:1033F00025FD0446204603B0F0BD6FF01304F9E745
:1034000010B50446FFF713FF01280DD123682046AD
:103410005B6F9847C3050AD410F0800F14BF6FF09C
:103420000E004FF0FF3010BD6FF01300FBE70148B6
:10343000F9E700BF42FDFFFF73B506460D4614468F
:10344000FFF7F5FE012816D125F00F0343EA141308
:1034500004F00F0444EA0511D6F85C018DF804303D
:103460008DF80510022301AA4FF4E861FEF7EFFC86
:10347000002002B070BD6FF01300FAE700000000FA
:1034800030B585B004AC04E90E00029CFFF7CFFE16
:1034900018BB019D2846FDF71FF825A3D3E900239B
:1034A000FDF7F8FA002832D023492846FDF72CFE14
:1034B00068B32046FDF710F81DA3D3E90023FDF7FC
:1034C000E9FA38B31D492046FDF71EFE002814BF57
:1034D00000206FF0650005B030BD01281DD19DF8BA
:1034E0000430053B072B1BD800212046FDF716FEB4
:1034F000C8B113492046FDF707FEA0B19DF80C3076
:10350000053B032B8CBF6FF009000020E3E76FF051
:103510006400E0E76FF06500DDE74FF0FF30DAE7C9
:103520006FF00800D7E76FF00700D4E7AFF3008033
:10353000333333333333E33F0000964300004843D3
:103540000000FF4330B585B004461546FFF76FFE17
:10355000012807D194F86431012B03D1D4F89401E8
:1035600005B030BD0023ADF80C300123CDE90033A8
:1035700003AAD4F85C0102231321FEF771FD15B1F3
:103580009DF80D302B709DF80C00E9E7F7B5054666
:10359000D0F85C010F461646FEF7C6FD2B680446C0
:1035A0005B6F284698476FF430739C4207D110F444
:1035B000007F18BF6FF00504204603B0F0BD002C5B
:1035C000FAD1420628D4830604D510F0100F08BFA4
:1035D0006FF0060400230DF10702012128468DF843
:1035E0000730FFF7AFFF16B1B04228BF3046C2B276
:1035F0009DF8073039462846FFF728FD78B92B6833
:1036000044F2FF31D3F8C83028469847002C0CBF4D
:1036100004466FF00604CFE76FF00604DAE70446CD
:10362000CAE70022FFF78EBFF8B505460C46FFF744
:10363000FEFD012848D195F8607142F21070B84043
:10364000FDF762FB4A490646D5F86801FDF7B4FB71
:1036500001463046FDF764FCFDF7B0FD7B1F012BF2
:10366000064687BF0821112300211923B0F57A5F90
:1036700095F864012ABFBA1EBA009200002895F896
:10368000630104EB4000C7EB400714BF4FF0000C90
:103690004FF0140C01EB8701D2B2614409B2541E01
:1036A0000029A8BF641895F8611194FBF2F2043167
:1036B00012FB01F2B5F86611083103EB810303EB4D
:1036C000820070438008F8BD60B9D5F8700160438E
:1036D000C000FCF7DFFE274B0022FCF755FFFDF78B
:1036E000EDF9F0E703283CD195F89931032B3BD84D
:1036F000DFE803F0022C3134062363430433052250
:10370000B3FBF2F39CB23022B4FBF2F303EB830081
:1037100000EB800002FB13444000A4B280B214B15D
:103720000234204480B295F89B31C3EBC30203EB13
:10373000C20300EB4300104B80B25843FDF7E4FA9C
:103740000E49FDF7EDFBFDF739FDBCE704EB440442
:10375000C4F34F04D7E76400A4B2D4E704EB4404F5
:10376000FAE74FF0FF30AEE76FF00900ABE700BFBC
:10377000000020410000503F00127A001D24F44355
:1037800010B50C4679B1FFF752FD012805D003288A
:1037900006D010B16FF0130010BD20700020FBE7C1
:1037A00002232370FAE76FF00200F5E730B501233A
:1037B00085B0CDE9003304460D468DF80C108DF828
:1037C0000D20D0F85C01022303AA8E21FEF787FCAE
:1037D00008B984F8905105B030BD2DE9F0431E467C
:1037E00085B090F86C319DF8304005468846174604
:1037F000A3B190F860014FF0010909FA00F0FDF75C
:1038000083FAD5F86811FDF78BFB4FF08341FDF784
:1038100085FC0028044618BF4C46E4B2012385F815
:103820006241CDE9003303AAD5F85C018DF80C8024
:1038300004238B218DF80D708DF80E608DF80F40EC
:10384000FEF74DFC05B0BDE8F0830000000000006D
:1038500073B505460E46FFF7EAFC012804465AD127
:1038600000213046FDF75AFC00283FD02E49304653
:10387000FDF74AFC002839D04FF07C513046FDF767
:103880009BFAFCF729FE26A3D3E90023FCF7C6FC2C
:10389000FDF714F9C3B2142B21D8022B26D9033B10
:1038A000112B23D8DFE803F02F2209220A22222934
:1038B000222222222B222222222D082495F8623154
:1038C00085F85041C5F86861009395F8613195F825
:1038D000601122462846FFF780FF02B070BD7D2BA5
:1038E00013D006D81F2B12D03E2B12D06FF007003A
:1038F000F3E7FA2BFAD10624E0E70924DEE70224F5
:10390000DCE70A24DAE70024D8E70524D6E7032415
:10391000D4E70424D2E76FF01300DEE7AFF30080B2
:103920007B14AE47E17A843F0000FF4337B504467D
:103930000D46FFF77CFC012811D16B1F072B11D816
:1039400094F8623184F86051009394F8613194F8EE
:10395000502129462046FFF740FF03B030BD6FF0ED
:103960001300FAE76FF00800F7E737B505460C4695
:10397000FFF75DFC012812D1631F032B12D8231F10
:1039800095F86221DBB285F86131009295F85021FB
:1039900095F860112846FFF720FF03B030BD6FF0A7
:1039A0001300FAE76FF00900F7E730B585B004AD12
:1039B00005E90E000446029DFFF739FC68B923684B
:1039C00001995B6B20469847A8BB23689B6B2946EF
:1039D000204605B0BDE830401847012812D19DF8B7
:1039E00004102046FFF7A2FF28BB29462046FFF718
:1039F0002FFF00BB9DF80C10204605B0BDE83040FD
:103A0000FFF7B3BF032818D19DF805209DF80430B7
:103A1000032A15D8092B84F8992114D884F89A31EF
:103A20004FF48073A4F8AA319DF8063084F89B0106
:103A300084F8A031002005B030BD4FF0FF30FAE728
:103A40006FF00900F7E76FF00700F4E730B585B0D5
:103A50000D0C089C8DF80C30230C8DF80D300123D3
:103A6000CDE9003308238DF808508DF80A100D0AAF
:103A70008DF80B2064BA0DEB03028B21D0F85C01AA
:103A80008DF80950ADF80E40FEF729FB05B030BDAA
:103A9000F7B504460D46FFF7CAFBA8BB0021284630
:103AA000FDF728FB00B1204D2846FCF715FD1AA3B1
:103AB000D3E9002306460F46FCF7ECFF38B31B4959
:103AC0002846FDF721FB10B3194B0022304639463A
:103AD000FCF75AFD00224FF08343FCF755FD10A37D
:103AE000D3E90023FCF77AFEFCF7E8FFC4F8740181
:103AF000009094F8793194F87A21D4F87011204626
:103B0000FFF7A4FF03B0F0BD6FF01300FAE76FF00A
:103B10006500F7E7AFF30080333333333333E33FEC
:103B20000000000080847E419A99193F00004843BC
:103B300000408F400000000037B504460D46FFF7F7
:103B400076FB20B1032810D06FF013002AE028463E
:103B5000FCF7C2FC16A3D3E90023FCF79BFF18B3C4
:103B600017492846FDF7D0FAF0B12846FCF7B4FC17
:103B7000144B0022FCF708FD02460B460EA1D1E9CA
:103B80000001FCF72BFEFCF799FFD4F87431C4F860
:103B900070010093014694F8793194F87A21204617
:103BA000FFF754FF03B030BD6FF06400FAE700BFC9
:103BB000333333333333E33F000000008084CE419E
:103BC0000000964300408F40F7B506460F46FFF7CA
:103BD0002EFB002840F03482C6F884713846FCF78A
:103BE0007BFCDBA3D3E9002304460D46FCF714FB62
:103BF000FCF784FF20F00040FCF76EFCD6A3D3E96D
:103C00000023FCF73DFF002840F0F281D4A3D3E964
:103C1000002320462946FCF7FFFAFCF76FFF20F04F
:103C20000040FCF759FCCCA3D3E90023FCF728FFA4
:103C3000002840F0DF81CCA3D3E9002320462946A9
:103C4000FCF7EAFAFCF75AFF20F00040FCF744FCCE
:103C5000C1A3D3E90023FCF713FF002840F0CC8177
:103C6000C3A3D3E9002320462946FCF7D5FAFCF785
:103C700045FF20F00040FCF72FFCB7A3D3E9002359
:103C8000FCF7FEFE002840F0B981BBA3D3E9002376
:103C900020462946FCF7C0FAFCF730FF20F0004030
:103CA000FCF71AFCACA3D3E90023FCF7E9FE0028DB
:103CB00040F0A681B2A3D3E9002320462946FCF7B1
:103CC000ABFAFCF71BFF20F00040FCF705FCA2A3B9
:103CD000D3E90023FCF7D4FE002840F09381C049CB
:103CE0003846FCF75FFF20F00040FCF7F5FB9AA395
:103CF000D3E90023FCF7C4FE002840F08581A2A38D
:103D0000D3E9002320462946FCF786FAFCF7F6FEA5
:103D100020F00040FCF7E0FB8FA3D3E90023FCF781
:103D2000AFFE002840F0728199A3D3E9002320461A
:103D30002946FCF771FAFCF7E1FE20F00040FCF7A1
:103D4000CBFB85A3D3E90023FCF79AFE002840F0C3
:103D50005F81A4493846FCF725FF20F00040FCF7BE
:103D6000BBFB7DA3D3E90023FCF78AFE002840F0CB
:103D7000518189A3D3E9002320462946FCF74CFA58
:103D8000FCF7BCFE20F00040FCF7A6FB72A3D3E9D1
:103D90000023FCF775FE002840F03E8180A3D3E9A4
:103DA000002320462946FCF737FAFCF7A7FE20F04F
:103DB0000040FCF791FB68A3D3E90023FCF760FE09
:103DC000002840F02B8178A3D3E900232046294620
:103DD000FCF722FAFCF792FE20F00040FCF77CFB97
:103DE0005DA3D3E90023FCF74BFE002840F01881C7
:103DF0006FA3D3E9002320462946FCF70DFAFCF710
:103E00007DFE20F00040FCF767FB53A3D3E90023BD
:103E1000FCF736FE002840F0058167A3D3E90023B4
:103E200020462946FCF7F8F9FCF768FE20F0004030
:103E3000FCF752FB48A3D3E90023FCF721FE00283E
:103E400040F0F2805EA3D3E9002320462946FCF728
:103E5000E3F9FCF753FE20F00040FCF73DFB3EA3E6
:103E6000D3E90023FCF70CFE002840F0DF8056A3C6
:103E7000D3E9002320462946FCF7CEF9FCF73EFEA5
:103E800020F00040FCF728FB33A3D3E90023FCF724
:103E9000F7FD002840F0CC804DA3D3E90023204655
:103EA0002946FCF7B9F9FCF729FE20F00040FCF7A1
:103EB00013FB29A3D3E90023FCF7E2FD002840F01F
:103EC000B98049493846FCF76DFE20F00040FCF708
:103ED00003FB21A3D3E90023FCF7D2FD002840F027
:103EE000AB803DA3D3E9002320462946FCF794F993
:103EF000FCF704FE20F00040FCF7EEFA16A3D3E92D
:103F00000023FCF7BDFD002840F098803749384673
:103F1000FCF748FE20F00040FCF7DEFA0EA3D3E9E0
:103F20000023FCF7ADFD002800F08D800923D6F8B2
:103F3000742186F87931009296F87A21D6F87011BA
:103F40003046FFF783FD03B0F0BD00BFAFF3008044
:103F50003333333333331340FCA9F1D24D62503F36
:103F600033333333333317403333333333331D4039
:103F700066666666666623406666666666662740AF
:103F80003333333333332D406666666666663740B7
:103F9000CDCCCCCCCC4C3D40333333333373474062
:103FA000CDCCCCCCCC4C4D40CDCCCCCCCC8C53401F
:103FB00033333333337357403333333333535D4009
:103FC00066666666668663406666666666666740BF
:103FD0009A99999999496D409A99999999597740DF
:103FE00000009C4100001C4200009C430080E9430B
:103FF0001F239CE717239AE70F2398E71E2396E7D2
:10400000162394E70E2392E71D2390E715238EE7EE
:104010000D238CE71C238AE7142388E70C2386E70B
:104020001B2384E7132382E70B2380E71A237EE711
:1040300012237CE70A237AE7192378E7112376E72E
:104040006FF013007FE76FF067007CE737B5054638
:104050000C46FFF7ECF808B103281CD1042C1DD83E
:10406000DFE804F00403131517000824D5F87431B1
:1040700085F87A41009395F87931D5F87011224688
:104080002846FFF7E3FC03B030BD0924EEE70A241D
:10409000ECE70B24EAE76FF01300F4E76FF0690038
:1040A000F1E77FB58DF813309DF828308DF80E209C
:1040B0008DF814309DF820208DF80F200123CDE9D4
:1040C00000339DF824208DF810209DF82C208DF8C9
:1040D000112049BA9DF83020ADF80C108DF812204F
:1040E000092303AA8C21D0F85C01FDF7F8FF07B083
:1040F0005DF804FB70B586B005460E461446FFF722
:1041000096F8B8BB082C4BD8234632464FF4D861FA
:10411000D5F85C01FDF79BFEE400B5F88011E4B230
:10412000A1420A46A8BF22461F2A85F87C411BDC13
:10413000172A1BDC0F2A1BDC003A18BF0122920051
:10414000FF2385F87821049395F87E31039395F841
:104150007D3102930023CDE90043284695F87B3159
:10416000FFF79FFF06B070BD0722E9E70622E7E7E9
:104170000522E5E7012809D1012C11D83178442224
:10418000284606B0BDE87040FFF756B9032804D1B1
:10419000042C05D13368C5F89C316FF01300E1E7BA
:1041A0006FF06800DEE770B588B004460D4616462D
:1041B000FFF73DF8002841D1C5B9FF2384F87D51B0
:1041C000049394F87E31CDE90253019594F87C3143
:1041D000009394F87B3194F87821B4F8801120464C
:1041E000FFF75FFF0546284608B070BD012384F83D
:1041F0007D3107AA4FF4D7612046FEF7A0FE0546A1
:104200000028F0D19DF81C30D4F85C018DF81D60B9
:10421000C6F3002223F0010313438DF81C3007AAD4
:1042200002234FF4D761FDF712FEFF23049394F8A5
:104230007E31039394F87D310293C6E76FF0130546
:10424000D1E7003940F2FF1218BF0121FFF7ABBFE1
:1042500070B586B004460D461646FEF7E8FFB0B9C5
:10426000CDE9035694F87D31CDE9010394F87C3112
:10427000009394F87B3194F87821B4F880112046AB
:10428000FFF70FFF08B984F87E5106B070BD6FF0DC
:104290001300FAE70A460121FFF7DABF1FB5012331
:1042A000CDE900338DF80C108DF80D20022303AA00
:1042B0008F21D0F85C01FDF712FF05B05DF804FB1B
:1042C0001FB50123CDE900338DF80C1003AA962108
:1042D000D0F85C01FDF703FF05B05DF804FB002199
:1042E000FFF7EEBF0121FFF7EBBF1FB50023ADF8CD
:1042F0000C308DF80E300123CDE9003303AA0323DF
:104300001421D0F85C01FDF7ABFE9DF80D309DF84F
:104310000C209DF80E001B0243EA0243184305B02F
:104320005DF804FB1FB571B1FFF7DFFFC0B2FCF70A
:10433000C1F80F4B002201F10041FCF725F9FCF711
:10434000DDFB04B010BD0123CDE900338DF80F1063
:104350000DF10F021521D0F85C01FDF781FE9DF8EB
:104360000F00FCF7D1FC4FF03F41FCF725FDE8E7DB
:104370000000E03F0121FFF7D5BF000010B5044663
:10438000FEF755FF012812D12046FFF7AEFF034686
:104390001B04C0F3072048BFA0F58070FCF78AF823
:1043A000044B0022FCF7F0F8FCF7A8FB10BD024814
:1043B000FCE700BF0000D03F0000A0C11FB50023F4
:1043C000ADF80C300123CDE9003303AA02231721F5
:1043D000D0F85C01FDF744FEBDF80C0040BA80B295
:1043E00005B05DF804FB1FB50023ADF80C300123C8
:1043F000CDE9003303AA02230721D0F85C01FDF7C1
:104400006EFE05B05DF804FB2DE9F04390F84931EC
:1044100085B00546894690461BB1894805B0BDE880
:10442000F08303689B6898472846FFF7C7FF830619
:1044300002D52846FFF7D7FF29F00040FCF74CF8DB
:104440006FA3D3E90023FCF71BFB044630B1012125
:10445000284605B0BDE8F043FEF7C6BB4846FCF76A
:104460003BF869A3D3E9002306460F46FBF7D4FEC9
:10447000FCF744FB20F00040FCF72EF860A3D3E9E2
:104480000023FCF7FDFA002840F0AB8060A3D3E9DD
:10449000002330463946FBF7BFFEFCF72FFB20F028
:1044A0000040FCF719F856A3D3E90023FCF7E8FA1B
:1044B000002840F0988058A3D3E9002330463946BD
:1044C000FBF7AAFEFCF71AFB20F00040FCF704F80B
:1044D0004BA3D3E90023FCF7D3FA002840F08580F2
:1044E0004FA3D3E9002330463946FBF795FEFCF78E
:1044F00005FB20F00040FBF7EFFF41A3D3E90023C9
:10450000FCF7BEFA002872D147A3D3E90023304656
:104510003946FBF781FEFCF7F1FA20F00040FBF78B
:10452000DBFF37A3D3E90023FCF7AAFA002860D108
:104530003FA3D3E9002330463946FBF76DFEFCF775
:10454000DDFA20F00040FBF7C7FF2DA3D3E90023DD
:10455000FCF796FA00284ED13A494846FCF722FB70
:1045600020F00040FBF7B8FF25A3D3E90023FCF7B8
:1045700087FA002841D130A3D3E9002330463946D9
:10458000FBF74AFEFCF7BAFA20F00040FBF7A4FF65
:104590001BA3D3E90023FCF773FA00283FF43DAFD7
:1045A000072340468DF80C30FCF7AEFBFBF794FF79
:1045B000254B0022FCF712F9FCF780FA030C8DF86A
:1045C0000D300123C5F88C81CDE9003340BAADF838
:1045D0000E000423D5F85C0103AA9721FDF77FFDA7
:1045E0001CE72346DDE70123DBE70223D9E70323AA
:1045F000D7E70423D5E70523D3E70623D1E700BF98
:10460000FCA9F1D24D62503F9A9999999999F93F35
:10461000333333333333FB3FCDCCCCCCCCCCFC3F2A
:104620009A9999999999014033333333333303403D
:104630009A999999999905406666666666660A40F0
:1046400041FDFFFF0000404000402F4010B50446F0
:104650000846C4F854114FF09841FCF7ADFBFBF746
:104660003BFF064B0022FBF78FFFFCF727FA0146C2
:104670002046BDE81040FEF724BD00BF0000A03F6B
:1046800073B500238DF807300DF10702012340F6C2
:1046900089010446FEF753FC064610BB2046FEF790
:1046A000C6FD01289DF807501ED11349D4F86801B2
:1046B000FCF778FA20F00040FBF70EFF0CA3D3E9DB
:1046C0000023FCF7DDF978B105F0FB05D4F85C01B7
:1046D0008DF8075001230DF1070240F68901FDF71F
:1046E000B6FB304602B070BD45F00405EEE700BFF2
:1046F000FCA9F1D24D62503F0000FA4373B500238C
:104700008DF807300E4601230DF1070240F6D8015F
:104710000546FEF714FC044678B99DF807307EB1D3
:1047200043F01E038DF80730D5F85C0101230DF12D
:10473000070240F6D801FDF78AFB204602B070BDA3
:1047400023F01E0343F00803ECE773B590F86431DF
:10475000012B044604D06FF01306304602B070BD42
:10476000FEF765FD01280546F5D1002603460DF14B
:104770000602D4F85C018DF8066040F60211FDF7E0
:1047800066FB2B460DF1070240F6441120468DF8DA
:104790000760FEF7D4FB06460028DED19DF80730FF
:1047A000D4F85C0143F002038DF807300DF10702E5
:1047B0002B4640F64411FDF74AFBCEE703682DE98E
:1047C000F7439B6804460E4615469847002840F07C
:1047D000A8802046FEF72BFD01285BD194F86031BC
:1047E0009840FCF791FAD4F86811FCF799FBFBF7B5
:1047F00073FE544B0022FBF7C7FEFCF75FF9074638
:10480000FCF782FAFBF768FE4F4B0022FBF7BCFE79
:104810004E4B0022FBF7E2FFFCF750F92368002221
:104820000092D3F814800146022340F272222046FF
:10483000C047002875D1D4F85C3118680368DB697B
:1048400098478046D4F85C311868596A02689268C3
:104850009047002843D00027236820469B6898474C
:1048600018B16FF4307398425BD1236820465B6FB8
:104870009847830545D4002F43D194F86431012B28
:1048800052D023685B6A2A463146204603B0BDE811
:10489000F0431847002852D1002D14BF2846FF20AE
:1048A000FBF7F8FD2A4B0022FBF76EFE8046D4F89A
:1048B00070018946FCF728FA01462648FCF730FBD0
:1048C000FBF70AFE02460B4640464946FBF786FFC9
:1048D0001D4B0022FBF758FE1F4B00228BE7D4F83C
:1048E0005C3118680368DB6C9847D4F85C31186851
:1048F0000368DB699847A0EB08008742A2D2012732
:10490000AAE7236820469B6898472046FFF71DFFCB
:10491000236844F2FF31D3F8C830204698476FF03F
:10492000050003B0BDE8F0832046FEF780FC0128B7
:10493000A7D12046FFF709FF0028A2D0F1E74FF0EA
:10494000FF30EEE70000594000408F4000402F400C
:10495000000020400024744E0000144073B5002372
:104960008DF807300E4601230DF1070240F2367133
:104970000546FEF7E4FA044690B99DF80730D5F8ED
:104980005C01012E0CBF03F0FB0343F004038DF820
:1049900007300DF10702012340F23671FDF757FA97
:1049A000204602B070BD2DE9FF419DF82C800C46D9
:1049B0004146064617461D46FFF7D0FFB0B99DF8A1
:1049C00028308DF80A300123CDE9003364BAD6F8D7
:1049D0005C01ADF80840062302AA8C218DF80B502B
:1049E0008DF80C708DF80D80FDF779FB04B0BDE8F3
:1049F000F0812DE9F041FF2AC8B0054688461646E9
:104A000000F2DE80FEF713FC012807462FD195F84F
:104A10009831019395F86431009395F86321B5F8C6
:104A20006611F3B22846FFF7BEFF0446D8B90090DE
:104A30000346012240F201212846FEF71BFB0446F3
:104A400088B9024601462846FFF728FC044650B9BB
:104A5000032F2ED00346F2B241462846FEF7E2FA73
:104A6000044600286ED0204648B0BDE8F081A8B9C1
:104A7000F3B2049395F87E31039395F87D31CDE937
:104A8000010395F87C31009395F87B3195F87821F6
:104A9000B5F880112846FFF704FBC6E7032802D0CB
:104AA0004FF0FF34DFE7002344F201020093114688
:104AB000C2E7284600F088FE04460028D3D195F8C6
:104AC0009B31C3F10403A3426BDCFF22002108A841
:104AD0000BF068FD0023C5E96B33C5F8B4310793CB
:104AE00005F5D873029307AF05F5D673CDE90073CA
:104AF000324608AB4146284600F0F2FB0446002847
:104B0000B1D103469DF81C2008A92846FEF78AFA71
:104B100004460028A7D106AA01231370079B5370EF
:104B2000D5F8B0319370D5F85C01032340F285319C
:104B3000FDF78DF995F8B071102F28BF1027264684
:104B4000B74233D82B6844F2FF31D3F8C830284637
:104B500098470446002886D12846FFF791FD044671
:104B6000002880D195F85811D5F85C01FDF734FB89
:104B700021462846FEF734F9044600287FF473AF37
:104B8000D5F85C311868D96A0268926890470028A5
:104B90003FF469AFD5F85C3118680368DB6C98475F
:104BA000EEE7284600F0A6FE013488E7F1B2284679
:104BB00000F0BAFE044600287FF455AF0136BFE787
:104BC0006FF003044FE72DE9F0411E46036886B0FD
:104BD0009B680446884617469847054600283AD100
:104BE0006FF07F4398453946204618BF46F400765B
:104BF00000F088FF31460546204600F083FF002381
:104C000082B2A9B200932046FEF734FA054610BBE3
:104C1000024601462046FFF741FB0546D8B9236806
:104C200044F2FF31D3F8C830204698472046FEF7BB
:104C3000FEFA012813D194F89831019394F8643165
:104C4000009394F8943194F86321B4F866112046E7
:104C5000FFF7A9FE0546284606B0BDE8F081A8B9D1
:104C6000FF23049394F87E31039394F87D31CDE9CA
:104C7000015394F87C31009394F87B3194F87821B7
:104C8000B4F880112046FFF70CFAE3E74FF0FF3548
:104C9000E1E738B5044690F8640101280D4604990F
:104CA00002D109B1C4F8941129462046FFF78BFFC1
:104CB00050B9D4F85C010221FDF78EFA294620464E
:104CC000BDE83840FEF7A2B838BD30B587B005461C
:104CD0000C46FEF7ACFA012811D195F89831A1B233
:104CE000A5F86611019395F86431009395F8943115
:104CF00095F863212846FFF756FE07B030BD58BB34
:104D000095F87C31A1B299420A46A8BF1A461F2ADB
:104D1000A5F880111ADC172A1ADC0F2A1ADC003ACF
:104D200018BF01229200FF2085F87821049095F8A1
:104D30007E01039095F87D0102900020CDE90030BE
:104D4000284695F87B31FFF7ACF9D6E70722EAE76A
:104D50000622E8E70522E6E74FF0FF30CDE72DE930
:104D6000F04188B004469DF838800D4617461E462F
:104D7000FEF75DFA002847D1012D09D0022D3CD065
:104D8000002D3FD06FF42F75284608B0BDE8F081A4
:104D90004FEA88085FFA88F5FF2384F87B51049373
:104DA00094F87E31039394F87D31029300230193AC
:104DB00094F87C31009394F87821B4F880112B4654
:104DC0002046FFF76EF905460028DDD1D4F85C01D6
:104DD00007AA7FBA022340F2BC61ADF81C7076BA14
:104DE000FDF735F8D4F85C01ADF81C60022307AA82
:104DF00040F2BE61FDF72BF8C6E7B8F1000F18BF0F
:104E00000625C9E70125C7E7012813D12A1E94F812
:104E1000983118BF012284F86321019394F864311A
:104E2000009394F89431B4F866112046FFF7BBFD67
:104E30000546A9E74FF0FF35A6E737B504460D460E
:104E4000FEF7F5F9012810D184F89851019594F8EE
:104E50006431009394F8943194F86321B4F86611A6
:104E60002046FFF7A0FD03B030BD6FF01300FAE756
:104E7000F0B5002285B00C4611460546FFF70EFA44
:104E800000286ED10126CDE900663346D5F85C01D5
:104E90008DF8084002AA8A21FDF721F9002860D187
:104EA00095F84A31CDE90066002B0CBF2023302352
:104EB0008DF80830D5F85C01334602AA9321FDF73E
:104EC0000EF900284DD103228DF8082095F86021B5
:104ED000ADF80C00CDE900660D328DF809200A22EC
:104EE000ADF80A208DF80E000723D5F85C0102AA60
:104EF0008821FDF7F4F80746002832D12B6844F2E8
:104F0000FF31D3F8C83028469847009704463B46FF
:104F10003A4639462846FEF7ADF8204300B200BBBA
:104F2000CDE900607F238DF80830D5F85C01334669
:104F300002AA8921FDF7D3F898B9D5F85C31186831
:104F4000036805215B699847D5F85C311868D96A10
:104F5000026892689047D5F85C3120B91846FDF791
:104F6000E3F805B0F0BD18680368DB6C9847EBE721
:104F70007FB505460E460A2401212846FDF734FE7A
:104F8000D5F85C0110224FF448716B46FCF7C3FE64
:104F90000622694630460BF00DFB68B1D5F85C314E
:104FA000186803680A215B69013C984714F0FF0404
:104FB000E2D1204604B070BD0120FBE72DE9F041AD
:104FC0000446D0F85C010D4616461F46FCF766FD08
:104FD000D4F85C311868596A0268D2F800804268D7
:104FE000C047D4F85C311868D96A0268D2F80080EA
:104FF0004268C047D4F85C3126494FF001084FF4AD
:10500000016283F813801A82D4F85C314FF44002B5
:10501000C3E90212204AD4F84C1183F804805A6183
:105020002046FFF7A5FF38B9D4F85C01FCF74AFD2C
:105030006FF00100BDE8F08141462046FDF7D4FD48
:105040000028F7D1236820469B6898470028F1D1B3
:1050500094F849315BB139462046FFF709FF002833
:10506000E8D1204696B1BDE8F041FFF738B90021FC
:105070002846FCF75DF80028EDD041F28832294639
:105080002046FFF7C1F90028E5D0D3E7BDE8F0419D
:10509000FFF728B91D000D00052A0008F7B51D46C9
:1050A000284BC0F86831062380F85031002316469B
:1050B000C0F88C31244A80F86431FF230F46C0F8D1
:1050C0006021C0F894319DF824200899A0F8665119
:1050D00001230446FFF772FF78BB39462046FEF7EE
:1050E00044FC50BB442231462046FEF7A5F910BBD4
:1050F000236829465B6D20469847F0B9134920463E
:10510000FDF72EFED8B901212046FDF759FEA0B9C2
:105110000123009341F60F5241F221030221204660
:10512000FFF71DFE48B923685B6C0146204603B0BB
:10513000BDE8F04018476FF0130003B0F0BD6FF00A
:105140001000FAE70000FA43090300010000704272
:105150002DE9FF4117461D4645F255324CF6CC432A
:10516000C0E95C23344BC0F884311A23BDF82860B1
:1051700080F8793140F209638846A0F87A319DF8C9
:1051800030200B99A0F8806100230446FFF716FF3A
:1051900000284AD1236841465B6B20469847002887
:1051A00043D1236839469B6B2046984700283CD161
:1051B00029462046FEF708FD002836D11F49204623
:1051C000FDF7CEFD002833D1236831465B6D2046C4
:1051D000984750BB4AF61253ADF80C3023680222B0
:1051E0001B6D03A920469847F8B923680146DB6B7D
:1051F00020469847C8B9236801461B6C204698474B
:1052000098B9FF212046FFF745F870B901250095B0
:1052100041F2210341F60F5202212046FFF79FFD84
:1052200018B929462046FDF7CBFD04B0BDE8F08152
:105230006FF01000F9E700BF33331C4300007042E9
:1052400070B586B00D46164680F8A0319DF82C202A
:105250000A9903230446FFF7B1FE88BB1E49204686
:10526000FDF77EFD70BB01212046FDF7A9FD38BB8F
:10527000CDE90300CDE90100009003460246014656
:105280002046FEF70EFFD8B90B2384F87A31236845
:1052900084F87901C4F874015B6B10492046984783
:1052A00070B9032E11D8092D84F8996110D8032301
:1052B00084F89B314FF4807384F89A51A4F8AA3192
:1052C00006B070BD6FF01000FAE76FF00900F7E765
:1052D0006FF00700F4E700BF000070420000FA3EE4
:1052E0002DE9F04FADF5297D83461C460292002042
:1052F000FF23029A904240F0C780AE4AAD48102387
:105300000025137047F25B574FF6FF73C2E9017334
:10531000D5602146029A00F04EFC029AC0F30723A2
:10532000A354A318294658709D704FF4187209AE03
:1053300010A80BF037F9A0483560032100F0A2FC5B
:10534000029B9D480096DA00163210AB214600F011
:105350009DFCFF22294620460BF024F99BF8997109
:10536000032F30D0954B0CAA03F1080C186859682C
:10537000154603C5083363452A46F7D1186899884E
:105380009B79AB71022F98BF8D4B2860A98098BF85
:1053900013F807C0336803934FF0000388BF4FF042
:1053A000000C1A4618460DF130094FF0010A0DF1B4
:1053B0004008039999427DD109920732D2082146CB
:1053C00010A80BF0D9FE099B0393002293B2039817
:1053D0005B438342114602F10102F7D38BB25B00BB
:1053E0009BB204939BF89B31BDF90C50C1F34E0264
:1053F0000692C3EBC30203EBC20300215B009BB226
:105400008A460A464FF00109002D74DC9BF89B2167
:105410004FF68E7112FB01330AAE0993029B337073
:105420009BF8A0319BF899219BF89A119B0043EAC5
:10543000C20343EAD10343F002037370BBF8AA31FD
:105440001A0942EA41121B01B2705A4AF37008234A
:1054500013702F21FF23C2E901130027D7603D46B7
:105460009BF89B21BA4200F2AD80029B9BF89911F8
:10547000DB0016339BB2032900F27281DFE811F0E2
:1054800064016C01970199010D5C83EA05021546E0
:10549000120142EA151222541A0982EA531282EAD0
:1054A000D30202F0010282EAD3125B00DBB21343A3
:1054B00001301EE719F80010B9B1DE084FEAD20E2C
:1054C00018F8066014F80E10DF43D54307F00707FD
:1054D00005F007053E41F6070AFA05F546BF2943E0
:1054E000C9B2A94304F80E1001320130844508BF47
:1054F000002001335DE7302D28464FEAD306A8BFD0
:1055000030200590D843A75D00F0070009FA00F0AD
:1055100027EA0007581CA755C710C043E65D00F0F6
:10552000070009FA00F026EA0006E6554FF0000CE5
:105530009F1C4FEAD20E0DF14008F81018F80EE04B
:1055400007906FEA0208FE4308F00708205C06F0A7
:1055500007064EFA08FE1EF0010F09FA06F614BF00
:105560003043B0434FEAE70618BFC0B2A0550498D5
:105570000244039892B290420BD8069A049852447F
:1055800092B290429FBF013189B20A468A4688BFD3
:105590009246059E0CF1010C0FFA8CF0864207F141
:1055A0000107C6DC0233303D16FA83F32DB29BB2FD
:1055B0002AE700BF5C04002024050020BC2001086D
:1055C00014280108F3787C48013AD21B23F00C031D
:1055D00043EA820331460422F37000F0ECFA0DF145
:1055E00030084FF00009307102217448A8F8089083
:1055F000C8E9009900F046FB4346282231466F482F
:10560000CDF8009000F042FB4346282231466B481B
:10561000CDF8009000F03AFBEA08EB43A15C4FF0B4
:10562000010E03F007030EFA03F321EA0303A35468
:1056300005EB0E03DA10DB43A15C03F007030EFA5F
:1056400003F321EA0303A3545D4B039305F1020C1A
:1056500005F12A00039B13F8011B03934FEAD109BC
:105660004FEADC0A18F8099014F80A20C9436FEAD7
:105670000C0301F0070103F0070349FA01F919F0DF
:10568000010F0EFA03F318BF1A430CF1010C14BFFB
:10569000D2B29A43604504F80A20DBD105F17203C7
:1056A000DFF82091039305F14A0C19F8011F6FEA06
:1056B0000C024FF0010E02F007020EFA02F20DF199
:1056C000300A4FEAD10E4FEADC081AF80EE014F85F
:1056D0000830C94301F007014EFA01FE1EF0010F28
:1056E0001ABF1343DBB2934304F80830039B0CF159
:1056F000010C6345D9D100214FF0010E0BEBD1080D
:105700004FEAD00C98F89C8114F80C306FEA01092C
:10571000C24309F0070902F0070248FA09F818F035
:10572000010F0EFA02F218BF134301F1010114BF79
:10573000DBB29343202904F80C3000F10100DDD1E5
:105740007235ADB201378BE606214B430433052198
:10575000B3FBF1F39BB203E003EB4303C3F34F034B
:10576000302003F12F01B1FBF0F10A44B4990A6033
:10577000B3FBF0F101EB810202EB820200FB11337B
:1057800052009BB292B213B102331A4492B29BF808
:105790009B31722113FB0123B39A1360B29A073332
:1057A000DB08002013600DF5297DBDE8F08F5B005C
:1057B000D0E703EB4303CDE75C0400202405002081
:1057C000172801083E28010870B5464A8AB00346EA
:1057D00005AC02F1100610685168254603C5083271
:1057E000B2422C46F7D110683F4A28601068928870
:1057F000ADF810203D4A029249F28E52ADF80420D5
:1058000093F8A0210390002A93F89A210AA800EBAC
:1058100042020CBF3421082132F8142CB2FBF1F201
:105820000621632AA3F8A221A3F8A4112AD037D80D
:105830003C2A53D022D81E2A09D8092A04D92C4937
:1058400021FA02F2D20706D46FF0690014E0232A8D
:1058500001D02F2AF8D1B3F8AA210AA901EB92119D
:10586000B2F5C07F11F81C1CA3F8A61102F03F018D
:10587000A3F8A811E8D200200AB070BD3E2A2DD0AE
:10588000562AE1D1B3F8AA210AA901EBD21102F0FC
:105890007F0211F8201CA3F8A611A3F8A821EAE7BB
:1058A000B2F5C37F13D00ED8B92A01D0C62ACBD106
:1058B000B3F8AA210AA901EB1221D2B211F8241CD3
:1058C000A3F8A611E9E740F293118A42BCD14FF444
:1058D0008472A3F8A621B3F8AA21DEE73822A3F840
:1058E000A421B8E7CC2001087323010841444748AC
:1058F0000004405010B5B0F8A431B0F8A811B0F8C9
:10590000A241024603F001005B0818B1B2F8A601FB
:1059100043409BB2994214BF81EA03000846844287
:10592000F0D3A2F8A43110BDD0F8B0312DE9F7437F
:1059300004460D46002B78D0FFF7DCFFB4F8A23107
:10594000471EBAB23FB2B7EB530FA4BFD21A17B279
:1059500094F8A021D4F85401002A03F001034FF079
:1059600098410BBF4FF034094FF008094FF4D0486D
:105970004FF480585E1CFBF71FFAFAF7ADFD2C4B75
:105980000022FAF701FEFBF799F84FEA5909D4F81B
:10599000B42194F89B3109FB06F6A0EB46209A420D
:1059A00008FB170004D29B1ADB0758BF00F5807074
:1059B00005EB450600BA7600042301900DEB0302C7
:1059C00006F28A312046FDF7B3FA28BB3DB394F8BE
:1059D0009B31AB4225D8D4F8AC51312D23D8ADB290
:1059E00000238DF800306A46022306F562712046D6
:1059F0008DF80150FDF79CFA70B9D4F8AC315B1BFF
:105A0000C4F8AC31D4F8B031013BC4F8B031D4F8AB
:105A1000B4310133C4F8B43103B0BDE8F083732569
:105A2000DEE77225DCE73225DAE71846F4E700BF47
:105A30000000A03F6FF0180070476FF0180070472B
:105A40006FF01800704703680021DB6818476FF09B
:105A5000180070476FF0180070476FF0180070471B
:105A60006FF0180070476FF0180070476FF0180063
:105A700070476FF01800704784B004A800E90E006A
:105A80006FF0180004B0704700207047004870475E
:105A90000000C8C1002070476FF0180070476FF019
:105AA0001800704700207047704770476FF018006B
:105AB00070477047F8B50446114B40F8043B002589
:105AC0000F461646002128220AF06CFD84F8345057
:105AD00084F8355084F836504FF48072294604F12A
